{
	"contracts/EnsToken.sol": {
		"ENSToken": {
			"abi": [
				{
					"inputs": [],
					"stateMutability": "nonpayable",
					"type": "constructor"
				},
				{
					"anonymous": false,
					"inputs": [
						{
							"indexed": false,
							"internalType": "uint256",
							"name": "newSupply",
							"type": "uint256"
						}
					],
					"name": "TotalSupplyChanged",
					"type": "event"
				},
				{
					"anonymous": false,
					"inputs": [
						{
							"indexed": true,
							"internalType": "address",
							"name": "from",
							"type": "address"
						},
						{
							"indexed": true,
							"internalType": "address",
							"name": "to",
							"type": "address"
						},
						{
							"indexed": false,
							"internalType": "uint256",
							"name": "amount",
							"type": "uint256"
						}
					],
					"name": "Transfer",
					"type": "event"
				},
				{
					"inputs": [
						{
							"internalType": "address",
							"name": "",
							"type": "address"
						}
					],
					"name": "balances",
					"outputs": [
						{
							"internalType": "uint256",
							"name": "",
							"type": "uint256"
						}
					],
					"stateMutability": "view",
					"type": "function"
				},
				{
					"inputs": [
						{
							"internalType": "uint256",
							"name": "_amount",
							"type": "uint256"
						}
					],
					"name": "burn",
					"outputs": [],
					"stateMutability": "nonpayable",
					"type": "function"
				},
				{
					"inputs": [],
					"name": "getMaxSupply",
					"outputs": [
						{
							"internalType": "uint256",
							"name": "",
							"type": "uint256"
						}
					],
					"stateMutability": "view",
					"type": "function"
				},
				{
					"inputs": [
						{
							"internalType": "address",
							"name": "_user",
							"type": "address"
						}
					],
					"name": "getPaymentHistory",
					"outputs": [
						{
							"components": [
								{
									"internalType": "uint256",
									"name": "amount",
									"type": "uint256"
								},
								{
									"internalType": "address",
									"name": "recipient",
									"type": "address"
								}
							],
							"internalType": "struct ENSToken.Payment[]",
							"name": "",
							"type": "tuple[]"
						}
					],
					"stateMutability": "view",
					"type": "function"
				},
				{
					"inputs": [],
					"name": "getTotalSupply",
					"outputs": [
						{
							"internalType": "uint256",
							"name": "",
							"type": "uint256"
						}
					],
					"stateMutability": "view",
					"type": "function"
				},
				{
					"inputs": [],
					"name": "increaseSupply",
					"outputs": [],
					"stateMutability": "nonpayable",
					"type": "function"
				},
				{
					"inputs": [],
					"name": "maxSupply",
					"outputs": [
						{
							"internalType": "uint256",
							"name": "",
							"type": "uint256"
						}
					],
					"stateMutability": "view",
					"type": "function"
				},
				{
					"inputs": [],
					"name": "name",
					"outputs": [
						{
							"internalType": "string",
							"name": "",
							"type": "string"
						}
					],
					"stateMutability": "view",
					"type": "function"
				},
				{
					"inputs": [],
					"name": "owner",
					"outputs": [
						{
							"internalType": "address",
							"name": "",
							"type": "address"
						}
					],
					"stateMutability": "view",
					"type": "function"
				},
				{
					"inputs": [
						{
							"internalType": "address",
							"name": "",
							"type": "address"
						},
						{
							"internalType": "uint256",
							"name": "",
							"type": "uint256"
						}
					],
					"name": "paymentHistory",
					"outputs": [
						{
							"internalType": "uint256",
							"name": "amount",
							"type": "uint256"
						},
						{
							"internalType": "address",
							"name": "recipient",
							"type": "address"
						}
					],
					"stateMutability": "view",
					"type": "function"
				},
				{
					"inputs": [],
					"name": "symbol",
					"outputs": [
						{
							"internalType": "string",
							"name": "",
							"type": "string"
						}
					],
					"stateMutability": "view",
					"type": "function"
				},
				{
					"inputs": [],
					"name": "totalSupply",
					"outputs": [
						{
							"internalType": "uint256",
							"name": "",
							"type": "uint256"
						}
					],
					"stateMutability": "view",
					"type": "function"
				},
				{
					"inputs": [
						{
							"internalType": "uint256",
							"name": "_amount",
							"type": "uint256"
						},
						{
							"internalType": "address",
							"name": "_recipient",
							"type": "address"
						}
					],
					"name": "transfer",
					"outputs": [],
					"stateMutability": "nonpayable",
					"type": "function"
				}
			],
			"devdoc": {
				"kind": "dev",
				"methods": {},
				"version": 1
			},
			"evm": {
				"assembly": "    /* \"contracts/EnsToken.sol\":64:2516  contract ENSToken {... */\n  mstore(0x40, 0x80)\n    /* \"contracts/EnsToken.sol\":93:125  string public name = \"ENS Token\" */\n  mload(0x40)\n  dup1\n  0x40\n  add\n  0x40\n  mstore\n  dup1\n  0x09\n  dup2\n  mstore\n  0x20\n  add\n  0x454e5320546f6b656e0000000000000000000000000000000000000000000000\n  dup2\n  mstore\n  pop\n  0x00\n  swap1\n  dup2\n  tag_1\n  swap2\n  swap1\n  tag_2\n  jump\t// in\ntag_1:\n  pop\n    /* \"contracts/EnsToken.sol\":131:159  string public symbol = \"ENS\" */\n  mload(0x40)\n  dup1\n  0x40\n  add\n  0x40\n  mstore\n  dup1\n  0x03\n  dup2\n  mstore\n  0x20\n  add\n  0x454e530000000000000000000000000000000000000000000000000000000000\n  dup2\n  mstore\n  pop\n  0x01\n  swap1\n  dup2\n  tag_3\n  swap2\n  swap1\n  tag_2\n  jump\t// in\ntag_3:\n  pop\n    /* \"contracts/EnsToken.sol\":194:199  10000 */\n  0x2710\n    /* \"contracts/EnsToken.sol\":165:199  uint256 public totalSupply = 10000 */\n  0x02\n  sstore\n    /* \"contracts/EnsToken.sol\":232:240  21000000 */\n  0x01406f40\n    /* \"contracts/EnsToken.sol\":205:240  uint256 public maxSupply = 21000000 */\n  0x03\n  sstore\n    /* \"contracts/EnsToken.sol\":780:868  constructor() {... */\n  callvalue\n  dup1\n  iszero\n  tag_4\n  jumpi\n  revert(0x00, 0x00)\ntag_4:\n  pop\n    /* \"contracts/EnsToken.sol\":812:822  msg.sender */\n  caller\n    /* \"contracts/EnsToken.sol\":804:809  owner */\n  0x04\n  0x00\n    /* \"contracts/EnsToken.sol\":804:822  owner = msg.sender */\n  0x0100\n  exp\n  dup2\n  sload\n  dup2\n  0xffffffffffffffffffffffffffffffffffffffff\n  mul\n  not\n  and\n  swap1\n  dup4\n  0xffffffffffffffffffffffffffffffffffffffff\n  and\n  mul\n  or\n  swap1\n  sstore\n  pop\n    /* \"contracts/EnsToken.sol\":850:861  totalSupply */\n  sload(0x02)\n    /* \"contracts/EnsToken.sol\":832:840  balances */\n  0x05\n    /* \"contracts/EnsToken.sol\":832:847  balances[owner] */\n  0x00\n    /* \"contracts/EnsToken.sol\":841:846  owner */\n  0x04\n  0x00\n  swap1\n  sload\n  swap1\n  0x0100\n  exp\n  swap1\n  div\n  0xffffffffffffffffffffffffffffffffffffffff\n  and\n    /* \"contracts/EnsToken.sol\":832:847  balances[owner] */\n  0xffffffffffffffffffffffffffffffffffffffff\n  and\n  0xffffffffffffffffffffffffffffffffffffffff\n  and\n  dup2\n  mstore\n  0x20\n  add\n  swap1\n  dup2\n  mstore\n  0x20\n  add\n  0x00\n  keccak256\n    /* \"contracts/EnsToken.sol\":832:861  balances[owner] = totalSupply */\n  dup2\n  swap1\n  sstore\n  pop\n    /* \"contracts/EnsToken.sol\":64:2516  contract ENSToken {... */\n  jump(tag_7)\n    /* \"#utility.yul\":7:106   */\ntag_8:\n    /* \"#utility.yul\":59:65   */\n  0x00\n    /* \"#utility.yul\":93:98   */\n  dup2\n    /* \"#utility.yul\":87:99   */\n  mload\n    /* \"#utility.yul\":77:99   */\n  swap1\n  pop\n    /* \"#utility.yul\":7:106   */\n  swap2\n  swap1\n  pop\n  jump\t// out\n    /* \"#utility.yul\":112:292   */\ntag_9:\n    /* \"#utility.yul\":160:237   */\n  0x4e487b7100000000000000000000000000000000000000000000000000000000\n    /* \"#utility.yul\":157:158   */\n  0x00\n    /* \"#utility.yul\":150:238   */\n  mstore\n    /* \"#utility.yul\":257:261   */\n  0x41\n    /* \"#utility.yul\":254:255   */\n  0x04\n    /* \"#utility.yul\":247:262   */\n  mstore\n    /* \"#utility.yul\":281:285   */\n  0x24\n    /* \"#utility.yul\":278:279   */\n  0x00\n    /* \"#utility.yul\":271:286   */\n  revert\n    /* \"#utility.yul\":298:478   */\ntag_10:\n    /* \"#utility.yul\":346:423   */\n  0x4e487b7100000000000000000000000000000000000000000000000000000000\n    /* \"#utility.yul\":343:344   */\n  0x00\n    /* \"#utility.yul\":336:424   */\n  mstore\n    /* \"#utility.yul\":443:447   */\n  0x22\n    /* \"#utility.yul\":440:441   */\n  0x04\n    /* \"#utility.yul\":433:448   */\n  mstore\n    /* \"#utility.yul\":467:471   */\n  0x24\n    /* \"#utility.yul\":464:465   */\n  0x00\n    /* \"#utility.yul\":457:472   */\n  revert\n    /* \"#utility.yul\":484:804   */\ntag_11:\n    /* \"#utility.yul\":528:534   */\n  0x00\n    /* \"#utility.yul\":565:566   */\n  0x02\n    /* \"#utility.yul\":559:563   */\n  dup3\n    /* \"#utility.yul\":555:567   */\n  div\n    /* \"#utility.yul\":545:567   */\n  swap1\n  pop\n    /* \"#utility.yul\":612:613   */\n  0x01\n    /* \"#utility.yul\":606:610   */\n  dup3\n    /* \"#utility.yul\":602:614   */\n  and\n    /* \"#utility.yul\":633:651   */\n  dup1\n    /* \"#utility.yul\":623:704   */\n  tag_33\n  jumpi\n    /* \"#utility.yul\":689:693   */\n  0x7f\n    /* \"#utility.yul\":681:687   */\n  dup3\n    /* \"#utility.yul\":677:694   */\n  and\n    /* \"#utility.yul\":667:694   */\n  swap2\n  pop\n    /* \"#utility.yul\":623:704   */\ntag_33:\n    /* \"#utility.yul\":751:753   */\n  0x20\n    /* \"#utility.yul\":743:749   */\n  dup3\n    /* \"#utility.yul\":740:754   */\n  lt\n    /* \"#utility.yul\":720:738   */\n  dup2\n    /* \"#utility.yul\":717:755   */\n  sub\n    /* \"#utility.yul\":714:798   */\n  tag_34\n  jumpi\n    /* \"#utility.yul\":770:788   */\n  tag_35\n  tag_10\n  jump\t// in\ntag_35:\n    /* \"#utility.yul\":714:798   */\ntag_34:\n    /* \"#utility.yul\":535:804   */\n  pop\n    /* \"#utility.yul\":484:804   */\n  swap2\n  swap1\n  pop\n  jump\t// out\n    /* \"#utility.yul\":810:951   */\ntag_12:\n    /* \"#utility.yul\":859:863   */\n  0x00\n    /* \"#utility.yul\":882:885   */\n  dup2\n    /* \"#utility.yul\":874:885   */\n  swap1\n  pop\n    /* \"#utility.yul\":905:908   */\n  dup2\n    /* \"#utility.yul\":902:903   */\n  0x00\n    /* \"#utility.yul\":895:909   */\n  mstore\n    /* \"#utility.yul\":939:943   */\n  0x20\n    /* \"#utility.yul\":936:937   */\n  0x00\n    /* \"#utility.yul\":926:944   */\n  keccak256\n    /* \"#utility.yul\":918:944   */\n  swap1\n  pop\n    /* \"#utility.yul\":810:951   */\n  swap2\n  swap1\n  pop\n  jump\t// out\n    /* \"#utility.yul\":957:1050   */\ntag_13:\n    /* \"#utility.yul\":994:1000   */\n  0x00\n    /* \"#utility.yul\":1041:1043   */\n  0x20\n    /* \"#utility.yul\":1036:1038   */\n  0x1f\n    /* \"#utility.yul\":1029:1034   */\n  dup4\n    /* \"#utility.yul\":1025:1039   */\n  add\n    /* \"#utility.yul\":1021:1044   */\n  div\n    /* \"#utility.yul\":1011:1044   */\n  swap1\n  pop\n    /* \"#utility.yul\":957:1050   */\n  swap2\n  swap1\n  pop\n  jump\t// out\n    /* \"#utility.yul\":1056:1163   */\ntag_14:\n    /* \"#utility.yul\":1100:1108   */\n  0x00\n    /* \"#utility.yul\":1150:1155   */\n  dup3\n    /* \"#utility.yul\":1144:1148   */\n  dup3\n    /* \"#utility.yul\":1140:1156   */\n  shl\n    /* \"#utility.yul\":1119:1156   */\n  swap1\n  pop\n    /* \"#utility.yul\":1056:1163   */\n  swap3\n  swap2\n  pop\n  pop\n  jump\t// out\n    /* \"#utility.yul\":1169:1562   */\ntag_15:\n    /* \"#utility.yul\":1238:1244   */\n  0x00\n    /* \"#utility.yul\":1288:1289   */\n  0x08\n    /* \"#utility.yul\":1276:1286   */\n  dup4\n    /* \"#utility.yul\":1272:1290   */\n  mul\n    /* \"#utility.yul\":1311:1408   */\n  tag_40\n    /* \"#utility.yul\":1341:1407   */\n  0xffffffffffffffffffffffffffffffffffffffffffffffffffffffffffffffff\n    /* \"#utility.yul\":1330:1339   */\n  dup3\n    /* \"#utility.yul\":1311:1408   */\n  tag_14\n  jump\t// in\ntag_40:\n    /* \"#utility.yul\":1429:1468   */\n  tag_41\n    /* \"#utility.yul\":1459:1467   */\n  dup7\n    /* \"#utility.yul\":1448:1457   */\n  dup4\n    /* \"#utility.yul\":1429:1468   */\n  tag_14\n  jump\t// in\ntag_41:\n    /* \"#utility.yul\":1417:1468   */\n  swap6\n  pop\n    /* \"#utility.yul\":1501:1505   */\n  dup1\n    /* \"#utility.yul\":1497:1506   */\n  not\n    /* \"#utility.yul\":1490:1495   */\n  dup5\n    /* \"#utility.yul\":1486:1507   */\n  and\n    /* \"#utility.yul\":1477:1507   */\n  swap4\n  pop\n    /* \"#utility.yul\":1550:1554   */\n  dup1\n    /* \"#utility.yul\":1540:1548   */\n  dup7\n    /* \"#utility.yul\":1536:1555   */\n  and\n    /* \"#utility.yul\":1529:1534   */\n  dup5\n    /* \"#utility.yul\":1526:1556   */\n  or\n    /* \"#utility.yul\":1516:1556   */\n  swap3\n  pop\n    /* \"#utility.yul\":1245:1562   */\n  pop\n  pop\n    /* \"#utility.yul\":1169:1562   */\n  swap4\n  swap3\n  pop\n  pop\n  pop\n  jump\t// out\n    /* \"#utility.yul\":1568:1645   */\ntag_16:\n    /* \"#utility.yul\":1605:1612   */\n  0x00\n    /* \"#utility.yul\":1634:1639   */\n  dup2\n    /* \"#utility.yul\":1623:1639   */\n  swap1\n  pop\n    /* \"#utility.yul\":1568:1645   */\n  swap2\n  swap1\n  pop\n  jump\t// out\n    /* \"#utility.yul\":1651:1711   */\ntag_17:\n    /* \"#utility.yul\":1679:1682   */\n  0x00\n    /* \"#utility.yul\":1700:1705   */\n  dup2\n    /* \"#utility.yul\":1693:1705   */\n  swap1\n  pop\n    /* \"#utility.yul\":1651:1711   */\n  swap2\n  swap1\n  pop\n  jump\t// out\n    /* \"#utility.yul\":1717:1859   */\ntag_18:\n    /* \"#utility.yul\":1767:1776   */\n  0x00\n    /* \"#utility.yul\":1800:1853   */\n  tag_45\n    /* \"#utility.yul\":1818:1852   */\n  tag_46\n    /* \"#utility.yul\":1827:1851   */\n  tag_47\n    /* \"#utility.yul\":1845:1850   */\n  dup5\n    /* \"#utility.yul\":1827:1851   */\n  tag_16\n  jump\t// in\ntag_47:\n    /* \"#utility.yul\":1818:1852   */\n  tag_17\n  jump\t// in\ntag_46:\n    /* \"#utility.yul\":1800:1853   */\n  tag_16\n  jump\t// in\ntag_45:\n    /* \"#utility.yul\":1787:1853   */\n  swap1\n  pop\n    /* \"#utility.yul\":1717:1859   */\n  swap2\n  swap1\n  pop\n  jump\t// out\n    /* \"#utility.yul\":1865:1940   */\ntag_19:\n    /* \"#utility.yul\":1908:1911   */\n  0x00\n    /* \"#utility.yul\":1929:1934   */\n  dup2\n    /* \"#utility.yul\":1922:1934   */\n  swap1\n  pop\n    /* \"#utility.yul\":1865:1940   */\n  swap2\n  swap1\n  pop\n  jump\t// out\n    /* \"#utility.yul\":1946:2215   */\ntag_20:\n    /* \"#utility.yul\":2056:2095   */\n  tag_50\n    /* \"#utility.yul\":2087:2094   */\n  dup4\n    /* \"#utility.yul\":2056:2095   */\n  tag_18\n  jump\t// in\ntag_50:\n    /* \"#utility.yul\":2117:2208   */\n  tag_51\n    /* \"#utility.yul\":2166:2207   */\n  tag_52\n    /* \"#utility.yul\":2190:2206   */\n  dup3\n    /* \"#utility.yul\":2166:2207   */\n  tag_19\n  jump\t// in\ntag_52:\n    /* \"#utility.yul\":2158:2164   */\n  dup5\n    /* \"#utility.yul\":2151:2155   */\n  dup5\n    /* \"#utility.yul\":2145:2156   */\n  sload\n    /* \"#utility.yul\":2117:2208   */\n  tag_15\n  jump\t// in\ntag_51:\n    /* \"#utility.yul\":2111:2115   */\n  dup3\n    /* \"#utility.yul\":2104:2209   */\n  sstore\n    /* \"#utility.yul\":2022:2215   */\n  pop\n    /* \"#utility.yul\":1946:2215   */\n  pop\n  pop\n  pop\n  jump\t// out\n    /* \"#utility.yul\":2221:2294   */\ntag_21:\n    /* \"#utility.yul\":2266:2269   */\n  0x00\n    /* \"#utility.yul\":2287:2288   */\n  0x00\n    /* \"#utility.yul\":2280:2288   */\n  swap1\n  pop\n    /* \"#utility.yul\":2221:2294   */\n  swap1\n  jump\t// out\n    /* \"#utility.yul\":2300:2489   */\ntag_22:\n    /* \"#utility.yul\":2377:2409   */\n  tag_55\n  tag_21\n  jump\t// in\ntag_55:\n    /* \"#utility.yul\":2418:2483   */\n  tag_56\n    /* \"#utility.yul\":2476:2482   */\n  dup2\n    /* \"#utility.yul\":2468:2474   */\n  dup5\n    /* \"#utility.yul\":2462:2466   */\n  dup5\n    /* \"#utility.yul\":2418:2483   */\n  tag_20\n  jump\t// in\ntag_56:\n    /* \"#utility.yul\":2353:2489   */\n  pop\n    /* \"#utility.yul\":2300:2489   */\n  pop\n  pop\n  jump\t// out\n    /* \"#utility.yul\":2495:2681   */\ntag_23:\n    /* \"#utility.yul\":2555:2675   */\ntag_58:\n    /* \"#utility.yul\":2572:2575   */\n  dup2\n    /* \"#utility.yul\":2565:2570   */\n  dup2\n    /* \"#utility.yul\":2562:2576   */\n  lt\n    /* \"#utility.yul\":2555:2675   */\n  iszero\n  tag_60\n  jumpi\n    /* \"#utility.yul\":2626:2665   */\n  tag_61\n    /* \"#utility.yul\":2663:2664   */\n  0x00\n    /* \"#utility.yul\":2656:2661   */\n  dup3\n    /* \"#utility.yul\":2626:2665   */\n  tag_22\n  jump\t// in\ntag_61:\n    /* \"#utility.yul\":2599:2600   */\n  0x01\n    /* \"#utility.yul\":2592:2597   */\n  dup2\n    /* \"#utility.yul\":2588:2601   */\n  add\n    /* \"#utility.yul\":2579:2601   */\n  swap1\n  pop\n    /* \"#utility.yul\":2555:2675   */\n  jump(tag_58)\ntag_60:\n    /* \"#utility.yul\":2495:2681   */\n  pop\n  pop\n  jump\t// out\n    /* \"#utility.yul\":2687:3230   */\ntag_24:\n    /* \"#utility.yul\":2788:2790   */\n  0x1f\n    /* \"#utility.yul\":2783:2786   */\n  dup3\n    /* \"#utility.yul\":2780:2791   */\n  gt\n    /* \"#utility.yul\":2777:3223   */\n  iszero\n  tag_63\n  jumpi\n    /* \"#utility.yul\":2822:2860   */\n  tag_64\n    /* \"#utility.yul\":2854:2859   */\n  dup2\n    /* \"#utility.yul\":2822:2860   */\n  tag_12\n  jump\t// in\ntag_64:\n    /* \"#utility.yul\":2906:2935   */\n  tag_65\n    /* \"#utility.yul\":2924:2934   */\n  dup5\n    /* \"#utility.yul\":2906:2935   */\n  tag_13\n  jump\t// in\ntag_65:\n    /* \"#utility.yul\":2896:2904   */\n  dup2\n    /* \"#utility.yul\":2892:2936   */\n  add\n    /* \"#utility.yul\":3089:3091   */\n  0x20\n    /* \"#utility.yul\":3077:3087   */\n  dup6\n    /* \"#utility.yul\":3074:3092   */\n  lt\n    /* \"#utility.yul\":3071:3120   */\n  iszero\n  tag_66\n  jumpi\n    /* \"#utility.yul\":3110:3118   */\n  dup2\n    /* \"#utility.yul\":3095:3118   */\n  swap1\n  pop\n    /* \"#utility.yul\":3071:3120   */\ntag_66:\n    /* \"#utility.yul\":3133:3213   */\n  tag_67\n    /* \"#utility.yul\":3189:3211   */\n  tag_68\n    /* \"#utility.yul\":3207:3210   */\n  dup6\n    /* \"#utility.yul\":3189:3211   */\n  tag_13\n  jump\t// in\ntag_68:\n    /* \"#utility.yul\":3179:3187   */\n  dup4\n    /* \"#utility.yul\":3175:3212   */\n  add\n    /* \"#utility.yul\":3162:3173   */\n  dup3\n    /* \"#utility.yul\":3133:3213   */\n  tag_23\n  jump\t// in\ntag_67:\n    /* \"#utility.yul\":2792:3223   */\n  pop\n  pop\n    /* \"#utility.yul\":2777:3223   */\ntag_63:\n    /* \"#utility.yul\":2687:3230   */\n  pop\n  pop\n  pop\n  jump\t// out\n    /* \"#utility.yul\":3236:3353   */\ntag_25:\n    /* \"#utility.yul\":3290:3298   */\n  0x00\n    /* \"#utility.yul\":3340:3345   */\n  dup3\n    /* \"#utility.yul\":3334:3338   */\n  dup3\n    /* \"#utility.yul\":3330:3346   */\n  shr\n    /* \"#utility.yul\":3309:3346   */\n  swap1\n  pop\n    /* \"#utility.yul\":3236:3353   */\n  swap3\n  swap2\n  pop\n  pop\n  jump\t// out\n    /* \"#utility.yul\":3359:3528   */\ntag_26:\n    /* \"#utility.yul\":3403:3409   */\n  0x00\n    /* \"#utility.yul\":3436:3487   */\n  tag_71\n    /* \"#utility.yul\":3484:3485   */\n  0x00\n    /* \"#utility.yul\":3480:3486   */\n  not\n    /* \"#utility.yul\":3472:3477   */\n  dup5\n    /* \"#utility.yul\":3469:3470   */\n  0x08\n    /* \"#utility.yul\":3465:3478   */\n  mul\n    /* \"#utility.yul\":3436:3487   */\n  tag_25\n  jump\t// in\ntag_71:\n    /* \"#utility.yul\":3432:3488   */\n  not\n    /* \"#utility.yul\":3517:3521   */\n  dup1\n    /* \"#utility.yul\":3511:3515   */\n  dup4\n    /* \"#utility.yul\":3507:3522   */\n  and\n    /* \"#utility.yul\":3497:3522   */\n  swap2\n  pop\n    /* \"#utility.yul\":3410:3528   */\n  pop\n    /* \"#utility.yul\":3359:3528   */\n  swap3\n  swap2\n  pop\n  pop\n  jump\t// out\n    /* \"#utility.yul\":3533:3828   */\ntag_27:\n    /* \"#utility.yul\":3609:3613   */\n  0x00\n    /* \"#utility.yul\":3755:3784   */\n  tag_73\n    /* \"#utility.yul\":3780:3783   */\n  dup4\n    /* \"#utility.yul\":3774:3778   */\n  dup4\n    /* \"#utility.yul\":3755:3784   */\n  tag_26\n  jump\t// in\ntag_73:\n    /* \"#utility.yul\":3747:3784   */\n  swap2\n  pop\n    /* \"#utility.yul\":3817:3820   */\n  dup3\n    /* \"#utility.yul\":3814:3815   */\n  0x02\n    /* \"#utility.yul\":3810:3821   */\n  mul\n    /* \"#utility.yul\":3804:3808   */\n  dup3\n    /* \"#utility.yul\":3801:3822   */\n  or\n    /* \"#utility.yul\":3793:3822   */\n  swap1\n  pop\n    /* \"#utility.yul\":3533:3828   */\n  swap3\n  swap2\n  pop\n  pop\n  jump\t// out\n    /* \"#utility.yul\":3833:5228   */\ntag_2:\n    /* \"#utility.yul\":3950:3987   */\n  tag_75\n    /* \"#utility.yul\":3983:3986   */\n  dup3\n    /* \"#utility.yul\":3950:3987   */\n  tag_8\n  jump\t// in\ntag_75:\n    /* \"#utility.yul\":4052:4070   */\n  0xffffffffffffffff\n    /* \"#utility.yul\":4044:4050   */\n  dup2\n    /* \"#utility.yul\":4041:4071   */\n  gt\n    /* \"#utility.yul\":4038:4094   */\n  iszero\n  tag_76\n  jumpi\n    /* \"#utility.yul\":4074:4092   */\n  tag_77\n  tag_9\n  jump\t// in\ntag_77:\n    /* \"#utility.yul\":4038:4094   */\ntag_76:\n    /* \"#utility.yul\":4118:4156   */\n  tag_78\n    /* \"#utility.yul\":4150:4154   */\n  dup3\n    /* \"#utility.yul\":4144:4155   */\n  sload\n    /* \"#utility.yul\":4118:4156   */\n  tag_11\n  jump\t// in\ntag_78:\n    /* \"#utility.yul\":4203:4270   */\n  tag_79\n    /* \"#utility.yul\":4263:4269   */\n  dup3\n    /* \"#utility.yul\":4255:4261   */\n  dup3\n    /* \"#utility.yul\":4249:4253   */\n  dup6\n    /* \"#utility.yul\":4203:4270   */\n  tag_24\n  jump\t// in\ntag_79:\n    /* \"#utility.yul\":4297:4298   */\n  0x00\n    /* \"#utility.yul\":4321:4325   */\n  0x20\n    /* \"#utility.yul\":4308:4325   */\n  swap1\n  pop\n    /* \"#utility.yul\":4353:4355   */\n  0x1f\n    /* \"#utility.yul\":4345:4351   */\n  dup4\n    /* \"#utility.yul\":4342:4356   */\n  gt\n    /* \"#utility.yul\":4370:4371   */\n  0x01\n    /* \"#utility.yul\":4365:4983   */\n  dup2\n  eq\n  tag_81\n  jumpi\n    /* \"#utility.yul\":5027:5028   */\n  0x00\n    /* \"#utility.yul\":5044:5050   */\n  dup5\n    /* \"#utility.yul\":5041:5118   */\n  iszero\n  tag_82\n  jumpi\n    /* \"#utility.yul\":5093:5102   */\n  dup3\n    /* \"#utility.yul\":5088:5091   */\n  dup8\n    /* \"#utility.yul\":5084:5103   */\n  add\n    /* \"#utility.yul\":5078:5104   */\n  mload\n    /* \"#utility.yul\":5069:5104   */\n  swap1\n  pop\n    /* \"#utility.yul\":5041:5118   */\ntag_82:\n    /* \"#utility.yul\":5144:5211   */\n  tag_83\n    /* \"#utility.yul\":5204:5210   */\n  dup6\n    /* \"#utility.yul\":5197:5202   */\n  dup3\n    /* \"#utility.yul\":5144:5211   */\n  tag_27\n  jump\t// in\ntag_83:\n    /* \"#utility.yul\":5138:5142   */\n  dup7\n    /* \"#utility.yul\":5131:5212   */\n  sstore\n    /* \"#utility.yul\":5000:5222   */\n  pop\n    /* \"#utility.yul\":4335:5222   */\n  jump(tag_80)\n    /* \"#utility.yul\":4365:4983   */\ntag_81:\n    /* \"#utility.yul\":4417:4421   */\n  0x1f\n    /* \"#utility.yul\":4413:4422   */\n  not\n    /* \"#utility.yul\":4405:4411   */\n  dup5\n    /* \"#utility.yul\":4401:4423   */\n  and\n    /* \"#utility.yul\":4451:4488   */\n  tag_84\n    /* \"#utility.yul\":4483:4487   */\n  dup7\n    /* \"#utility.yul\":4451:4488   */\n  tag_12\n  jump\t// in\ntag_84:\n    /* \"#utility.yul\":4510:4511   */\n  0x00\n    /* \"#utility.yul\":4524:4732   */\ntag_85:\n    /* \"#utility.yul\":4538:4545   */\n  dup3\n    /* \"#utility.yul\":4535:4536   */\n  dup2\n    /* \"#utility.yul\":4532:4546   */\n  lt\n    /* \"#utility.yul\":4524:4732   */\n  iszero\n  tag_87\n  jumpi\n    /* \"#utility.yul\":4617:4626   */\n  dup5\n    /* \"#utility.yul\":4612:4615   */\n  dup10\n    /* \"#utility.yul\":4608:4627   */\n  add\n    /* \"#utility.yul\":4602:4628   */\n  mload\n    /* \"#utility.yul\":4594:4600   */\n  dup3\n    /* \"#utility.yul\":4587:4629   */\n  sstore\n    /* \"#utility.yul\":4668:4669   */\n  0x01\n    /* \"#utility.yul\":4660:4666   */\n  dup3\n    /* \"#utility.yul\":4656:4670   */\n  add\n    /* \"#utility.yul\":4646:4670   */\n  swap2\n  pop\n    /* \"#utility.yul\":4715:4717   */\n  0x20\n    /* \"#utility.yul\":4704:4713   */\n  dup6\n    /* \"#utility.yul\":4700:4718   */\n  add\n    /* \"#utility.yul\":4687:4718   */\n  swap5\n  pop\n    /* \"#utility.yul\":4561:4565   */\n  0x20\n    /* \"#utility.yul\":4558:4559   */\n  dup2\n    /* \"#utility.yul\":4554:4566   */\n  add\n    /* \"#utility.yul\":4549:4566   */\n  swap1\n  pop\n    /* \"#utility.yul\":4524:4732   */\n  jump(tag_85)\ntag_87:\n    /* \"#utility.yul\":4760:4766   */\n  dup7\n    /* \"#utility.yul\":4751:4758   */\n  dup4\n    /* \"#utility.yul\":4748:4767   */\n  lt\n    /* \"#utility.yul\":4745:4924   */\n  iszero\n  tag_88\n  jumpi\n    /* \"#utility.yul\":4818:4827   */\n  dup5\n    /* \"#utility.yul\":4813:4816   */\n  dup10\n    /* \"#utility.yul\":4809:4828   */\n  add\n    /* \"#utility.yul\":4803:4829   */\n  mload\n    /* \"#utility.yul\":4861:4909   */\n  tag_89\n    /* \"#utility.yul\":4903:4907   */\n  0x1f\n    /* \"#utility.yul\":4895:4901   */\n  dup10\n    /* \"#utility.yul\":4891:4908   */\n  and\n    /* \"#utility.yul\":4880:4889   */\n  dup3\n    /* \"#utility.yul\":4861:4909   */\n  tag_26\n  jump\t// in\ntag_89:\n    /* \"#utility.yul\":4853:4859   */\n  dup4\n    /* \"#utility.yul\":4846:4910   */\n  sstore\n    /* \"#utility.yul\":4768:4924   */\n  pop\n    /* \"#utility.yul\":4745:4924   */\ntag_88:\n    /* \"#utility.yul\":4970:4971   */\n  0x01\n    /* \"#utility.yul\":4966:4967   */\n  0x02\n    /* \"#utility.yul\":4958:4964   */\n  dup9\n    /* \"#utility.yul\":4954:4968   */\n  mul\n    /* \"#utility.yul\":4950:4972   */\n  add\n    /* \"#utility.yul\":4944:4948   */\n  dup9\n    /* \"#utility.yul\":4937:4973   */\n  sstore\n    /* \"#utility.yul\":4372:4983   */\n  pop\n  pop\n  pop\n    /* \"#utility.yul\":4335:5222   */\ntag_80:\n  pop\n    /* \"#utility.yul\":3925:5228   */\n  pop\n  pop\n  pop\n    /* \"#utility.yul\":3833:5228   */\n  pop\n  pop\n  jump\t// out\n    /* \"contracts/EnsToken.sol\":64:2516  contract ENSToken {... */\ntag_7:\n  dataSize(sub_0)\n  dup1\n  dataOffset(sub_0)\n  0x00\n  codecopy\n  0x00\n  return\nstop\n\nsub_0: assembly {\n        /* \"contracts/EnsToken.sol\":64:2516  contract ENSToken {... */\n      mstore(0x40, 0x80)\n      callvalue\n      dup1\n      iszero\n      tag_1\n      jumpi\n      revert(0x00, 0x00)\n    tag_1:\n      pop\n      jumpi(tag_2, lt(calldatasize, 0x04))\n      shr(0xe0, calldataload(0x00))\n      dup1\n      0x8da5cb5b\n      gt\n      tag_16\n      jumpi\n      dup1\n      0xc4e41b22\n      gt\n      tag_17\n      jumpi\n      dup1\n      0xc4e41b22\n      eq\n      tag_12\n      jumpi\n      dup1\n      0xcc38b477\n      eq\n      tag_13\n      jumpi\n      dup1\n      0xd1965080\n      eq\n      tag_14\n      jumpi\n      dup1\n      0xd5abeb01\n      eq\n      tag_15\n      jumpi\n      jump(tag_2)\n    tag_17:\n      dup1\n      0x8da5cb5b\n      eq\n      tag_9\n      jumpi\n      dup1\n      0x95d89b41\n      eq\n      tag_10\n      jumpi\n      dup1\n      0xb7760c8f\n      eq\n      tag_11\n      jumpi\n      jump(tag_2)\n    tag_16:\n      dup1\n      0x06fdde03\n      eq\n      tag_3\n      jumpi\n      dup1\n      0x18160ddd\n      eq\n      tag_4\n      jumpi\n      dup1\n      0x27e235e3\n      eq\n      tag_5\n      jumpi\n      dup1\n      0x42966c68\n      eq\n      tag_6\n      jumpi\n      dup1\n      0x4c0f38c2\n      eq\n      tag_7\n      jumpi\n      dup1\n      0x7da2ba7c\n      eq\n      tag_8\n      jumpi\n    tag_2:\n      revert(0x00, 0x00)\n        /* \"contracts/EnsToken.sol\":93:125  string public name = \"ENS Token\" */\n    tag_3:\n      tag_18\n      tag_19\n      jump\t// in\n    tag_18:\n      mload(0x40)\n      tag_20\n      swap2\n      swap1\n      tag_21\n      jump\t// in\n    tag_20:\n      mload(0x40)\n      dup1\n      swap2\n      sub\n      swap1\n      return\n        /* \"contracts/EnsToken.sol\":165:199  uint256 public totalSupply = 10000 */\n    tag_4:\n      tag_22\n      tag_23\n      jump\t// in\n    tag_22:\n      mload(0x40)\n      tag_24\n      swap2\n      swap1\n      tag_25\n      jump\t// in\n    tag_24:\n      mload(0x40)\n      dup1\n      swap2\n      sub\n      swap1\n      return\n        /* \"contracts/EnsToken.sol\":273:316  mapping(address => uint256) public balances */\n    tag_5:\n      tag_26\n      0x04\n      dup1\n      calldatasize\n      sub\n      dup2\n      add\n      swap1\n      tag_27\n      swap2\n      swap1\n      tag_28\n      jump\t// in\n    tag_27:\n      tag_29\n      jump\t// in\n    tag_26:\n      mload(0x40)\n      tag_30\n      swap2\n      swap1\n      tag_25\n      jump\t// in\n    tag_30:\n      mload(0x40)\n      dup1\n      swap2\n      sub\n      swap1\n      return\n        /* \"contracts/EnsToken.sol\":2211:2513  function burn(uint256 _amount) public {... */\n    tag_6:\n      tag_31\n      0x04\n      dup1\n      calldatasize\n      sub\n      dup2\n      add\n      swap1\n      tag_32\n      swap2\n      swap1\n      tag_33\n      jump\t// in\n    tag_32:\n      tag_34\n      jump\t// in\n    tag_31:\n      stop\n        /* \"contracts/EnsToken.sol\":996:1083  function getMaxSupply() public view returns (uint256) {... */\n    tag_7:\n      tag_35\n      tag_36\n      jump\t// in\n    tag_35:\n      mload(0x40)\n      tag_37\n      swap2\n      swap1\n      tag_25\n      jump\t// in\n    tag_37:\n      mload(0x40)\n      dup1\n      swap2\n      sub\n      swap1\n      return\n        /* \"contracts/EnsToken.sol\":1992:2118  function getPaymentHistory(address _user) public view returns (Payment[] memory) {... */\n    tag_8:\n      tag_38\n      0x04\n      dup1\n      calldatasize\n      sub\n      dup2\n      add\n      swap1\n      tag_39\n      swap2\n      swap1\n      tag_28\n      jump\t// in\n    tag_39:\n      tag_40\n      jump\t// in\n    tag_38:\n      mload(0x40)\n      tag_41\n      swap2\n      swap1\n      tag_42\n      jump\t// in\n    tag_41:\n      mload(0x40)\n      dup1\n      swap2\n      sub\n      swap1\n      return\n        /* \"contracts/EnsToken.sol\":246:266  address public owner */\n    tag_9:\n      tag_43\n      tag_44\n      jump\t// in\n    tag_43:\n      mload(0x40)\n      tag_45\n      swap2\n      swap1\n      tag_46\n      jump\t// in\n    tag_45:\n      mload(0x40)\n      dup1\n      swap2\n      sub\n      swap1\n      return\n        /* \"contracts/EnsToken.sol\":131:159  string public symbol = \"ENS\" */\n    tag_10:\n      tag_47\n      tag_48\n      jump\t// in\n    tag_47:\n      mload(0x40)\n      tag_49\n      swap2\n      swap1\n      tag_21\n      jump\t// in\n    tag_49:\n      mload(0x40)\n      dup1\n      swap2\n      sub\n      swap1\n      return\n        /* \"contracts/EnsToken.sol\":1562:1982  function transfer(uint256 _amount, address _recipient) public {... */\n    tag_11:\n      tag_50\n      0x04\n      dup1\n      calldatasize\n      sub\n      dup2\n      add\n      swap1\n      tag_51\n      swap2\n      swap1\n      tag_52\n      jump\t// in\n    tag_51:\n      tag_53\n      jump\t// in\n    tag_50:\n      stop\n        /* \"contracts/EnsToken.sol\":899:990  function getTotalSupply() public view returns (uint256) {... */\n    tag_12:\n      tag_54\n      tag_55\n      jump\t// in\n    tag_54:\n      mload(0x40)\n      tag_56\n      swap2\n      swap1\n      tag_25\n      jump\t// in\n    tag_56:\n      mload(0x40)\n      dup1\n      swap2\n      sub\n      swap1\n      return\n        /* \"contracts/EnsToken.sol\":406:457  mapping(address => Payment[]) public paymentHistory */\n    tag_13:\n      tag_57\n      0x04\n      dup1\n      calldatasize\n      sub\n      dup2\n      add\n      swap1\n      tag_58\n      swap2\n      swap1\n      tag_59\n      jump\t// in\n    tag_58:\n      tag_60\n      jump\t// in\n    tag_57:\n      mload(0x40)\n      tag_61\n      swap3\n      swap2\n      swap1\n      tag_62\n      jump\t// in\n    tag_61:\n      mload(0x40)\n      dup1\n      swap2\n      sub\n      swap1\n      return\n        /* \"contracts/EnsToken.sol\":1089:1349  function increaseSupply() public onlyOwner {... */\n    tag_14:\n      tag_63\n      tag_64\n      jump\t// in\n    tag_63:\n      stop\n        /* \"contracts/EnsToken.sol\":205:240  uint256 public maxSupply = 21000000 */\n    tag_15:\n      tag_65\n      tag_66\n      jump\t// in\n    tag_65:\n      mload(0x40)\n      tag_67\n      swap2\n      swap1\n      tag_25\n      jump\t// in\n    tag_67:\n      mload(0x40)\n      dup1\n      swap2\n      sub\n      swap1\n      return\n        /* \"contracts/EnsToken.sol\":93:125  string public name = \"ENS Token\" */\n    tag_19:\n      0x00\n      dup1\n      sload\n      tag_68\n      swap1\n      tag_69\n      jump\t// in\n    tag_68:\n      dup1\n      0x1f\n      add\n      0x20\n      dup1\n      swap2\n      div\n      mul\n      0x20\n      add\n      mload(0x40)\n      swap1\n      dup2\n      add\n      0x40\n      mstore\n      dup1\n      swap3\n      swap2\n      swap1\n      dup2\n      dup2\n      mstore\n      0x20\n      add\n      dup3\n      dup1\n      sload\n      tag_70\n      swap1\n      tag_69\n      jump\t// in\n    tag_70:\n      dup1\n      iszero\n      tag_71\n      jumpi\n      dup1\n      0x1f\n      lt\n      tag_72\n      jumpi\n      0x0100\n      dup1\n      dup4\n      sload\n      div\n      mul\n      dup4\n      mstore\n      swap2\n      0x20\n      add\n      swap2\n      jump(tag_71)\n    tag_72:\n      dup3\n      add\n      swap2\n      swap1\n      0x00\n      mstore\n      keccak256(0x00, 0x20)\n      swap1\n    tag_73:\n      dup2\n      sload\n      dup2\n      mstore\n      swap1\n      0x01\n      add\n      swap1\n      0x20\n      add\n      dup1\n      dup4\n      gt\n      tag_73\n      jumpi\n      dup3\n      swap1\n      sub\n      0x1f\n      and\n      dup3\n      add\n      swap2\n    tag_71:\n      pop\n      pop\n      pop\n      pop\n      pop\n      dup2\n      jump\t// out\n        /* \"contracts/EnsToken.sol\":165:199  uint256 public totalSupply = 10000 */\n    tag_23:\n      sload(0x02)\n      dup2\n      jump\t// out\n        /* \"contracts/EnsToken.sol\":273:316  mapping(address => uint256) public balances */\n    tag_29:\n      mstore(0x20, 0x05)\n      dup1\n      0x00\n      mstore\n      keccak256(0x00, 0x40)\n      0x00\n      swap2\n      pop\n      swap1\n      pop\n      sload\n      dup2\n      jump\t// out\n        /* \"contracts/EnsToken.sol\":2211:2513  function burn(uint256 _amount) public {... */\n    tag_34:\n        /* \"contracts/EnsToken.sol\":2291:2298  _amount */\n      dup1\n        /* \"contracts/EnsToken.sol\":2267:2275  balances */\n      0x05\n        /* \"contracts/EnsToken.sol\":2267:2287  balances[msg.sender] */\n      0x00\n        /* \"contracts/EnsToken.sol\":2276:2286  msg.sender */\n      caller\n        /* \"contracts/EnsToken.sol\":2267:2287  balances[msg.sender] */\n      0xffffffffffffffffffffffffffffffffffffffff\n      and\n      0xffffffffffffffffffffffffffffffffffffffff\n      and\n      dup2\n      mstore\n      0x20\n      add\n      swap1\n      dup2\n      mstore\n      0x20\n      add\n      0x00\n      keccak256\n      sload\n        /* \"contracts/EnsToken.sol\":2267:2298  balances[msg.sender] >= _amount */\n      lt\n      iszero\n        /* \"contracts/EnsToken.sol\":2259:2328  require(balances[msg.sender] >= _amount, \"Not enough tokens to burn\") */\n      tag_75\n      jumpi\n      mload(0x40)\n      0x08c379a000000000000000000000000000000000000000000000000000000000\n      dup2\n      mstore\n      0x04\n      add\n      tag_76\n      swap1\n      tag_77\n      jump\t// in\n    tag_76:\n      mload(0x40)\n      dup1\n      swap2\n      sub\n      swap1\n      revert\n    tag_75:\n        /* \"contracts/EnsToken.sol\":2363:2370  _amount */\n      dup1\n        /* \"contracts/EnsToken.sol\":2339:2347  balances */\n      0x05\n        /* \"contracts/EnsToken.sol\":2339:2359  balances[msg.sender] */\n      0x00\n        /* \"contracts/EnsToken.sol\":2348:2358  msg.sender */\n      caller\n        /* \"contracts/EnsToken.sol\":2339:2359  balances[msg.sender] */\n      0xffffffffffffffffffffffffffffffffffffffff\n      and\n      0xffffffffffffffffffffffffffffffffffffffff\n      and\n      dup2\n      mstore\n      0x20\n      add\n      swap1\n      dup2\n      mstore\n      0x20\n      add\n      0x00\n      keccak256\n      0x00\n        /* \"contracts/EnsToken.sol\":2339:2370  balances[msg.sender] -= _amount */\n      dup3\n      dup3\n      sload\n      tag_78\n      swap2\n      swap1\n      tag_79\n      jump\t// in\n    tag_78:\n      swap3\n      pop\n      pop\n      dup2\n      swap1\n      sstore\n      pop\n        /* \"contracts/EnsToken.sol\":2395:2402  _amount */\n      dup1\n        /* \"contracts/EnsToken.sol\":2380:2391  totalSupply */\n      0x02\n      0x00\n        /* \"contracts/EnsToken.sol\":2380:2402  totalSupply -= _amount */\n      dup3\n      dup3\n      sload\n      tag_80\n      swap2\n      swap1\n      tag_79\n      jump\t// in\n    tag_80:\n      swap3\n      pop\n      pop\n      dup2\n      swap1\n      sstore\n      pop\n        /* \"contracts/EnsToken.sol\":2418:2449  TotalSupplyChanged(totalSupply) */\n      0xc8b17f75f53401f272e9ee7fa431e81ba33779363238896180425a422420c8f7\n        /* \"contracts/EnsToken.sol\":2437:2448  totalSupply */\n      sload(0x02)\n        /* \"contracts/EnsToken.sol\":2418:2449  TotalSupplyChanged(totalSupply) */\n      mload(0x40)\n      tag_81\n      swap2\n      swap1\n      tag_25\n      jump\t// in\n    tag_81:\n      mload(0x40)\n      dup1\n      swap2\n      sub\n      swap1\n      log1\n        /* \"contracts/EnsToken.sol\":2493:2494  0 */\n      0x00\n        /* \"contracts/EnsToken.sol\":2464:2505  Transfer(msg.sender, address(0), _amount) */\n      0xffffffffffffffffffffffffffffffffffffffff\n      and\n        /* \"contracts/EnsToken.sol\":2473:2483  msg.sender */\n      caller\n        /* \"contracts/EnsToken.sol\":2464:2505  Transfer(msg.sender, address(0), _amount) */\n      0xffffffffffffffffffffffffffffffffffffffff\n      and\n      0xddf252ad1be2c89b69c2b068fc378daa952ba7f163c4a11628f55a4df523b3ef\n        /* \"contracts/EnsToken.sol\":2497:2504  _amount */\n      dup4\n        /* \"contracts/EnsToken.sol\":2464:2505  Transfer(msg.sender, address(0), _amount) */\n      mload(0x40)\n      tag_82\n      swap2\n      swap1\n      tag_25\n      jump\t// in\n    tag_82:\n      mload(0x40)\n      dup1\n      swap2\n      sub\n      swap1\n      log3\n        /* \"contracts/EnsToken.sol\":2211:2513  function burn(uint256 _amount) public {... */\n      pop\n      jump\t// out\n        /* \"contracts/EnsToken.sol\":996:1083  function getMaxSupply() public view returns (uint256) {... */\n    tag_36:\n        /* \"contracts/EnsToken.sol\":1041:1048  uint256 */\n      0x00\n        /* \"contracts/EnsToken.sol\":1067:1076  maxSupply */\n      sload(0x03)\n        /* \"contracts/EnsToken.sol\":1060:1076  return maxSupply */\n      swap1\n      pop\n        /* \"contracts/EnsToken.sol\":996:1083  function getMaxSupply() public view returns (uint256) {... */\n      swap1\n      jump\t// out\n        /* \"contracts/EnsToken.sol\":1992:2118  function getPaymentHistory(address _user) public view returns (Payment[] memory) {... */\n    tag_40:\n        /* \"contracts/EnsToken.sol\":2055:2071  Payment[] memory */\n      0x60\n        /* \"contracts/EnsToken.sol\":2090:2104  paymentHistory */\n      0x06\n        /* \"contracts/EnsToken.sol\":2090:2111  paymentHistory[_user] */\n      0x00\n        /* \"contracts/EnsToken.sol\":2105:2110  _user */\n      dup4\n        /* \"contracts/EnsToken.sol\":2090:2111  paymentHistory[_user] */\n      0xffffffffffffffffffffffffffffffffffffffff\n      and\n      0xffffffffffffffffffffffffffffffffffffffff\n      and\n      dup2\n      mstore\n      0x20\n      add\n      swap1\n      dup2\n      mstore\n      0x20\n      add\n      0x00\n      keccak256\n        /* \"contracts/EnsToken.sol\":2083:2111  return paymentHistory[_user] */\n      dup1\n      sload\n      dup1\n      0x20\n      mul\n      0x20\n      add\n      mload(0x40)\n      swap1\n      dup2\n      add\n      0x40\n      mstore\n      dup1\n      swap3\n      swap2\n      swap1\n      dup2\n      dup2\n      mstore\n      0x20\n      add\n      0x00\n      swap1\n    tag_85:\n      dup3\n      dup3\n      lt\n      iszero\n      tag_86\n      jumpi\n      dup4\n      dup3\n      swap1\n      0x00\n      mstore\n      keccak256(0x00, 0x20)\n      swap1\n      0x02\n      mul\n      add\n      mload(0x40)\n      dup1\n      0x40\n      add\n      0x40\n      mstore\n      swap1\n      dup2\n      0x00\n      dup3\n      add\n      sload\n      dup2\n      mstore\n      0x20\n      add\n      0x01\n      dup3\n      add\n      0x00\n      swap1\n      sload\n      swap1\n      0x0100\n      exp\n      swap1\n      div\n      0xffffffffffffffffffffffffffffffffffffffff\n      and\n      0xffffffffffffffffffffffffffffffffffffffff\n      and\n      0xffffffffffffffffffffffffffffffffffffffff\n      and\n      dup2\n      mstore\n      pop\n      pop\n      dup2\n      mstore\n      0x20\n      add\n      swap1\n      0x01\n      add\n      swap1\n      jump(tag_85)\n    tag_86:\n      pop\n      pop\n      pop\n      pop\n      swap1\n      pop\n        /* \"contracts/EnsToken.sol\":1992:2118  function getPaymentHistory(address _user) public view returns (Payment[] memory) {... */\n      swap2\n      swap1\n      pop\n      jump\t// out\n        /* \"contracts/EnsToken.sol\":246:266  address public owner */\n    tag_44:\n      0x04\n      0x00\n      swap1\n      sload\n      swap1\n      0x0100\n      exp\n      swap1\n      div\n      0xffffffffffffffffffffffffffffffffffffffff\n      and\n      dup2\n      jump\t// out\n        /* \"contracts/EnsToken.sol\":131:159  string public symbol = \"ENS\" */\n    tag_48:\n      0x01\n      dup1\n      sload\n      tag_88\n      swap1\n      tag_69\n      jump\t// in\n    tag_88:\n      dup1\n      0x1f\n      add\n      0x20\n      dup1\n      swap2\n      div\n      mul\n      0x20\n      add\n      mload(0x40)\n      swap1\n      dup2\n      add\n      0x40\n      mstore\n      dup1\n      swap3\n      swap2\n      swap1\n      dup2\n      dup2\n      mstore\n      0x20\n      add\n      dup3\n      dup1\n      sload\n      tag_89\n      swap1\n      tag_69\n      jump\t// in\n    tag_89:\n      dup1\n      iszero\n      tag_90\n      jumpi\n      dup1\n      0x1f\n      lt\n      tag_91\n      jumpi\n      0x0100\n      dup1\n      dup4\n      sload\n      div\n      mul\n      dup4\n      mstore\n      swap2\n      0x20\n      add\n      swap2\n      jump(tag_90)\n    tag_91:\n      dup3\n      add\n      swap2\n      swap1\n      0x00\n      mstore\n      keccak256(0x00, 0x20)\n      swap1\n    tag_92:\n      dup2\n      sload\n      dup2\n      mstore\n      swap1\n      0x01\n      add\n      swap1\n      0x20\n      add\n      dup1\n      dup4\n      gt\n      tag_92\n      jumpi\n      dup3\n      swap1\n      sub\n      0x1f\n      and\n      dup3\n      add\n      swap2\n    tag_90:\n      pop\n      pop\n      pop\n      pop\n      pop\n      dup2\n      jump\t// out\n        /* \"contracts/EnsToken.sol\":1562:1982  function transfer(uint256 _amount, address _recipient) public {... */\n    tag_53:\n        /* \"contracts/EnsToken.sol\":1666:1673  _amount */\n      dup2\n        /* \"contracts/EnsToken.sol\":1642:1650  balances */\n      0x05\n        /* \"contracts/EnsToken.sol\":1642:1662  balances[msg.sender] */\n      0x00\n        /* \"contracts/EnsToken.sol\":1651:1661  msg.sender */\n      caller\n        /* \"contracts/EnsToken.sol\":1642:1662  balances[msg.sender] */\n      0xffffffffffffffffffffffffffffffffffffffff\n      and\n      0xffffffffffffffffffffffffffffffffffffffff\n      and\n      dup2\n      mstore\n      0x20\n      add\n      swap1\n      dup2\n      mstore\n      0x20\n      add\n      0x00\n      keccak256\n      sload\n        /* \"contracts/EnsToken.sol\":1642:1673  balances[msg.sender] >= _amount */\n      lt\n      iszero\n        /* \"contracts/EnsToken.sol\":1634:1698  require(balances[msg.sender] >= _amount, \"Insufficient balance\") */\n      tag_94\n      jumpi\n      mload(0x40)\n      0x08c379a000000000000000000000000000000000000000000000000000000000\n      dup2\n      mstore\n      0x04\n      add\n      tag_95\n      swap1\n      tag_96\n      jump\t// in\n    tag_95:\n      mload(0x40)\n      dup1\n      swap2\n      sub\n      swap1\n      revert\n    tag_94:\n        /* \"contracts/EnsToken.sol\":1741:1748  _amount */\n      dup2\n        /* \"contracts/EnsToken.sol\":1717:1725  balances */\n      0x05\n        /* \"contracts/EnsToken.sol\":1717:1737  balances[msg.sender] */\n      0x00\n        /* \"contracts/EnsToken.sol\":1726:1736  msg.sender */\n      caller\n        /* \"contracts/EnsToken.sol\":1717:1737  balances[msg.sender] */\n      0xffffffffffffffffffffffffffffffffffffffff\n      and\n      0xffffffffffffffffffffffffffffffffffffffff\n      and\n      dup2\n      mstore\n      0x20\n      add\n      swap1\n      dup2\n      mstore\n      0x20\n      add\n      0x00\n      keccak256\n      0x00\n        /* \"contracts/EnsToken.sol\":1717:1748  balances[msg.sender] -= _amount */\n      dup3\n      dup3\n      sload\n      tag_97\n      swap2\n      swap1\n      tag_79\n      jump\t// in\n    tag_97:\n      swap3\n      pop\n      pop\n      dup2\n      swap1\n      sstore\n      pop\n        /* \"contracts/EnsToken.sol\":1791:1798  _amount */\n      dup2\n        /* \"contracts/EnsToken.sol\":1767:1775  balances */\n      0x05\n        /* \"contracts/EnsToken.sol\":1767:1787  balances[_recipient] */\n      0x00\n        /* \"contracts/EnsToken.sol\":1776:1786  _recipient */\n      dup4\n        /* \"contracts/EnsToken.sol\":1767:1787  balances[_recipient] */\n      0xffffffffffffffffffffffffffffffffffffffff\n      and\n      0xffffffffffffffffffffffffffffffffffffffff\n      and\n      dup2\n      mstore\n      0x20\n      add\n      swap1\n      dup2\n      mstore\n      0x20\n      add\n      0x00\n      keccak256\n      0x00\n        /* \"contracts/EnsToken.sol\":1767:1798  balances[_recipient] += _amount */\n      dup3\n      dup3\n      sload\n      tag_98\n      swap2\n      swap1\n      tag_99\n      jump\t// in\n    tag_98:\n      swap3\n      pop\n      pop\n      dup2\n      swap1\n      sstore\n      pop\n        /* \"contracts/EnsToken.sol\":1809:1834  Payment memory newPayment */\n      0x00\n        /* \"contracts/EnsToken.sol\":1837:1865  Payment(_amount, _recipient) */\n      mload(0x40)\n      dup1\n      0x40\n      add\n      0x40\n      mstore\n      dup1\n        /* \"contracts/EnsToken.sol\":1845:1852  _amount */\n      dup5\n        /* \"contracts/EnsToken.sol\":1837:1865  Payment(_amount, _recipient) */\n      dup2\n      mstore\n      0x20\n      add\n        /* \"contracts/EnsToken.sol\":1854:1864  _recipient */\n      dup4\n        /* \"contracts/EnsToken.sol\":1837:1865  Payment(_amount, _recipient) */\n      0xffffffffffffffffffffffffffffffffffffffff\n      and\n      dup2\n      mstore\n      pop\n        /* \"contracts/EnsToken.sol\":1809:1865  Payment memory newPayment = Payment(_amount, _recipient) */\n      swap1\n      pop\n        /* \"contracts/EnsToken.sol\":1875:1889  paymentHistory */\n      0x06\n        /* \"contracts/EnsToken.sol\":1875:1901  paymentHistory[msg.sender] */\n      0x00\n        /* \"contracts/EnsToken.sol\":1890:1900  msg.sender */\n      caller\n        /* \"contracts/EnsToken.sol\":1875:1901  paymentHistory[msg.sender] */\n      0xffffffffffffffffffffffffffffffffffffffff\n      and\n      0xffffffffffffffffffffffffffffffffffffffff\n      and\n      dup2\n      mstore\n      0x20\n      add\n      swap1\n      dup2\n      mstore\n      0x20\n      add\n      0x00\n      keccak256\n        /* \"contracts/EnsToken.sol\":1907:1917  newPayment */\n      dup2\n        /* \"contracts/EnsToken.sol\":1875:1918  paymentHistory[msg.sender].push(newPayment) */\n      swap1\n      dup1\n      0x01\n      dup2\n      sload\n      add\n      dup1\n      dup3\n      sstore\n      dup1\n      swap2\n      pop\n      pop\n      0x01\n      swap1\n      sub\n      swap1\n      0x00\n      mstore\n      keccak256(0x00, 0x20)\n      swap1\n      0x02\n      mul\n      add\n      0x00\n      swap1\n      swap2\n      swap1\n      swap2\n      swap1\n      swap2\n      pop\n      0x00\n      dup3\n      add\n      mload\n      dup2\n      0x00\n      add\n      sstore\n      0x20\n      dup3\n      add\n      mload\n      dup2\n      0x01\n      add\n      exp(0x0100, 0x00)\n      dup2\n      sload\n      dup2\n      0xffffffffffffffffffffffffffffffffffffffff\n      mul\n      not\n      and\n      swap1\n      dup4\n      0xffffffffffffffffffffffffffffffffffffffff\n      and\n      mul\n      or\n      swap1\n      sstore\n      pop\n      pop\n      pop\n        /* \"contracts/EnsToken.sol\":1955:1965  _recipient */\n      dup2\n        /* \"contracts/EnsToken.sol\":1934:1975  Transfer(msg.sender, _recipient, _amount) */\n      0xffffffffffffffffffffffffffffffffffffffff\n      and\n        /* \"contracts/EnsToken.sol\":1943:1953  msg.sender */\n      caller\n        /* \"contracts/EnsToken.sol\":1934:1975  Transfer(msg.sender, _recipient, _amount) */\n      0xffffffffffffffffffffffffffffffffffffffff\n      and\n      0xddf252ad1be2c89b69c2b068fc378daa952ba7f163c4a11628f55a4df523b3ef\n        /* \"contracts/EnsToken.sol\":1967:1974  _amount */\n      dup6\n        /* \"contracts/EnsToken.sol\":1934:1975  Transfer(msg.sender, _recipient, _amount) */\n      mload(0x40)\n      tag_101\n      swap2\n      swap1\n      tag_25\n      jump\t// in\n    tag_101:\n      mload(0x40)\n      dup1\n      swap2\n      sub\n      swap1\n      log3\n        /* \"contracts/EnsToken.sol\":1624:1982  {... */\n      pop\n        /* \"contracts/EnsToken.sol\":1562:1982  function transfer(uint256 _amount, address _recipient) public {... */\n      pop\n      pop\n      jump\t// out\n        /* \"contracts/EnsToken.sol\":899:990  function getTotalSupply() public view returns (uint256) {... */\n    tag_55:\n        /* \"contracts/EnsToken.sol\":946:953  uint256 */\n      0x00\n        /* \"contracts/EnsToken.sol\":972:983  totalSupply */\n      sload(0x02)\n        /* \"contracts/EnsToken.sol\":965:983  return totalSupply */\n      swap1\n      pop\n        /* \"contracts/EnsToken.sol\":899:990  function getTotalSupply() public view returns (uint256) {... */\n      swap1\n      jump\t// out\n        /* \"contracts/EnsToken.sol\":406:457  mapping(address => Payment[]) public paymentHistory */\n    tag_60:\n      mstore(0x20, 0x06)\n      dup2\n      0x00\n      mstore\n      keccak256(0x00, 0x40)\n      dup2\n      dup2\n      sload\n      dup2\n      lt\n      tag_103\n      jumpi\n      0x00\n      dup1\n      revert\n    tag_103:\n      swap1\n      0x00\n      mstore\n      keccak256(0x00, 0x20)\n      swap1\n      0x02\n      mul\n      add\n      0x00\n      swap2\n      pop\n      swap2\n      pop\n      pop\n      dup1\n      0x00\n      add\n      sload\n      swap1\n      dup1\n      0x01\n      add\n      0x00\n      swap1\n      sload\n      swap1\n      0x0100\n      exp\n      swap1\n      div\n      0xffffffffffffffffffffffffffffffffffffffff\n      and\n      swap1\n      pop\n      dup3\n      jump\t// out\n        /* \"contracts/EnsToken.sol\":1089:1349  function increaseSupply() public onlyOwner {... */\n    tag_64:\n        /* \"contracts/EnsToken.sol\":680:685  owner */\n      0x04\n      0x00\n      swap1\n      sload\n      swap1\n      0x0100\n      exp\n      swap1\n      div\n      0xffffffffffffffffffffffffffffffffffffffff\n      and\n        /* \"contracts/EnsToken.sol\":666:685  msg.sender == owner */\n      0xffffffffffffffffffffffffffffffffffffffff\n      and\n        /* \"contracts/EnsToken.sol\":666:676  msg.sender */\n      caller\n        /* \"contracts/EnsToken.sol\":666:685  msg.sender == owner */\n      0xffffffffffffffffffffffffffffffffffffffff\n      and\n      eq\n        /* \"contracts/EnsToken.sol\":658:714  require(msg.sender == owner, \"Only owner can call this\") */\n      tag_106\n      jumpi\n      mload(0x40)\n      0x08c379a000000000000000000000000000000000000000000000000000000000\n      dup2\n      mstore\n      0x04\n      add\n      tag_107\n      swap1\n      tag_108\n      jump\t// in\n    tag_107:\n      mload(0x40)\n      dup1\n      swap2\n      sub\n      swap1\n      revert\n    tag_106:\n        /* \"contracts/EnsToken.sol\":1172:1181  maxSupply */\n      sload(0x03)\n        /* \"contracts/EnsToken.sol\":1164:1168  1000 */\n      0x03e8\n        /* \"contracts/EnsToken.sol\":1150:1161  totalSupply */\n      sload(0x02)\n        /* \"contracts/EnsToken.sol\":1150:1168  totalSupply + 1000 */\n      tag_110\n      swap2\n      swap1\n      tag_99\n      jump\t// in\n    tag_110:\n        /* \"contracts/EnsToken.sol\":1150:1181  totalSupply + 1000 <= maxSupply */\n      gt\n      iszero\n        /* \"contracts/EnsToken.sol\":1142:1205  require(totalSupply + 1000 <= maxSupply, \"Max supply exceeded\") */\n      tag_111\n      jumpi\n      mload(0x40)\n      0x08c379a000000000000000000000000000000000000000000000000000000000\n      dup2\n      mstore\n      0x04\n      add\n      tag_112\n      swap1\n      tag_113\n      jump\t// in\n    tag_112:\n      mload(0x40)\n      dup1\n      swap2\n      sub\n      swap1\n      revert\n    tag_111:\n        /* \"contracts/EnsToken.sol\":1239:1243  1000 */\n      0x03e8\n        /* \"contracts/EnsToken.sol\":1224:1235  totalSupply */\n      0x02\n      0x00\n        /* \"contracts/EnsToken.sol\":1224:1243  totalSupply += 1000 */\n      dup3\n      dup3\n      sload\n      tag_114\n      swap2\n      swap1\n      tag_99\n      jump\t// in\n    tag_114:\n      swap3\n      pop\n      pop\n      dup2\n      swap1\n      sstore\n      pop\n        /* \"contracts/EnsToken.sol\":1272:1276  1000 */\n      0x03e8\n        /* \"contracts/EnsToken.sol\":1253:1261  balances */\n      0x05\n        /* \"contracts/EnsToken.sol\":1253:1268  balances[owner] */\n      0x00\n        /* \"contracts/EnsToken.sol\":1262:1267  owner */\n      0x04\n      0x00\n      swap1\n      sload\n      swap1\n      0x0100\n      exp\n      swap1\n      div\n      0xffffffffffffffffffffffffffffffffffffffff\n      and\n        /* \"contracts/EnsToken.sol\":1253:1268  balances[owner] */\n      0xffffffffffffffffffffffffffffffffffffffff\n      and\n      0xffffffffffffffffffffffffffffffffffffffff\n      and\n      dup2\n      mstore\n      0x20\n      add\n      swap1\n      dup2\n      mstore\n      0x20\n      add\n      0x00\n      keccak256\n      0x00\n        /* \"contracts/EnsToken.sol\":1253:1276  balances[owner] += 1000 */\n      dup3\n      dup3\n      sload\n      tag_115\n      swap2\n      swap1\n      tag_99\n      jump\t// in\n    tag_115:\n      swap3\n      pop\n      pop\n      dup2\n      swap1\n      sstore\n      pop\n        /* \"contracts/EnsToken.sol\":1300:1331  TotalSupplyChanged(totalSupply) */\n      0xc8b17f75f53401f272e9ee7fa431e81ba33779363238896180425a422420c8f7\n        /* \"contracts/EnsToken.sol\":1319:1330  totalSupply */\n      sload(0x02)\n        /* \"contracts/EnsToken.sol\":1300:1331  TotalSupplyChanged(totalSupply) */\n      mload(0x40)\n      tag_116\n      swap2\n      swap1\n      tag_25\n      jump\t// in\n    tag_116:\n      mload(0x40)\n      dup1\n      swap2\n      sub\n      swap1\n      log1\n        /* \"contracts/EnsToken.sol\":1089:1349  function increaseSupply() public onlyOwner {... */\n      jump\t// out\n        /* \"contracts/EnsToken.sol\":205:240  uint256 public maxSupply = 21000000 */\n    tag_66:\n      sload(0x03)\n      dup2\n      jump\t// out\n        /* \"#utility.yul\":7:106   */\n    tag_117:\n        /* \"#utility.yul\":59:65   */\n      0x00\n        /* \"#utility.yul\":93:98   */\n      dup2\n        /* \"#utility.yul\":87:99   */\n      mload\n        /* \"#utility.yul\":77:99   */\n      swap1\n      pop\n        /* \"#utility.yul\":7:106   */\n      swap2\n      swap1\n      pop\n      jump\t// out\n        /* \"#utility.yul\":112:281   */\n    tag_118:\n        /* \"#utility.yul\":196:207   */\n      0x00\n        /* \"#utility.yul\":230:236   */\n      dup3\n        /* \"#utility.yul\":225:228   */\n      dup3\n        /* \"#utility.yul\":218:237   */\n      mstore\n        /* \"#utility.yul\":270:274   */\n      0x20\n        /* \"#utility.yul\":265:268   */\n      dup3\n        /* \"#utility.yul\":261:275   */\n      add\n        /* \"#utility.yul\":246:275   */\n      swap1\n      pop\n        /* \"#utility.yul\":112:281   */\n      swap3\n      swap2\n      pop\n      pop\n      jump\t// out\n        /* \"#utility.yul\":287:426   */\n    tag_119:\n        /* \"#utility.yul\":376:382   */\n      dup3\n        /* \"#utility.yul\":371:374   */\n      dup2\n        /* \"#utility.yul\":366:369   */\n      dup4\n        /* \"#utility.yul\":360:383   */\n      mcopy\n        /* \"#utility.yul\":417:418   */\n      0x00\n        /* \"#utility.yul\":408:414   */\n      dup4\n        /* \"#utility.yul\":403:406   */\n      dup4\n        /* \"#utility.yul\":399:415   */\n      add\n        /* \"#utility.yul\":392:419   */\n      mstore\n        /* \"#utility.yul\":287:426   */\n      pop\n      pop\n      pop\n      jump\t// out\n        /* \"#utility.yul\":432:534   */\n    tag_120:\n        /* \"#utility.yul\":473:479   */\n      0x00\n        /* \"#utility.yul\":524:526   */\n      0x1f\n        /* \"#utility.yul\":520:527   */\n      not\n        /* \"#utility.yul\":515:517   */\n      0x1f\n        /* \"#utility.yul\":508:513   */\n      dup4\n        /* \"#utility.yul\":504:518   */\n      add\n        /* \"#utility.yul\":500:528   */\n      and\n        /* \"#utility.yul\":490:528   */\n      swap1\n      pop\n        /* \"#utility.yul\":432:534   */\n      swap2\n      swap1\n      pop\n      jump\t// out\n        /* \"#utility.yul\":540:917   */\n    tag_121:\n        /* \"#utility.yul\":628:631   */\n      0x00\n        /* \"#utility.yul\":656:695   */\n      tag_159\n        /* \"#utility.yul\":689:694   */\n      dup3\n        /* \"#utility.yul\":656:695   */\n      tag_117\n      jump\t// in\n    tag_159:\n        /* \"#utility.yul\":711:782   */\n      tag_160\n        /* \"#utility.yul\":775:781   */\n      dup2\n        /* \"#utility.yul\":770:773   */\n      dup6\n        /* \"#utility.yul\":711:782   */\n      tag_118\n      jump\t// in\n    tag_160:\n        /* \"#utility.yul\":704:782   */\n      swap4\n      pop\n        /* \"#utility.yul\":791:856   */\n      tag_161\n        /* \"#utility.yul\":849:855   */\n      dup2\n        /* \"#utility.yul\":844:847   */\n      dup6\n        /* \"#utility.yul\":837:841   */\n      0x20\n        /* \"#utility.yul\":830:835   */\n      dup7\n        /* \"#utility.yul\":826:842   */\n      add\n        /* \"#utility.yul\":791:856   */\n      tag_119\n      jump\t// in\n    tag_161:\n        /* \"#utility.yul\":881:910   */\n      tag_162\n        /* \"#utility.yul\":903:909   */\n      dup2\n        /* \"#utility.yul\":881:910   */\n      tag_120\n      jump\t// in\n    tag_162:\n        /* \"#utility.yul\":876:879   */\n      dup5\n        /* \"#utility.yul\":872:911   */\n      add\n        /* \"#utility.yul\":865:911   */\n      swap2\n      pop\n        /* \"#utility.yul\":632:917   */\n      pop\n        /* \"#utility.yul\":540:917   */\n      swap3\n      swap2\n      pop\n      pop\n      jump\t// out\n        /* \"#utility.yul\":923:1236   */\n    tag_21:\n        /* \"#utility.yul\":1036:1040   */\n      0x00\n        /* \"#utility.yul\":1074:1076   */\n      0x20\n        /* \"#utility.yul\":1063:1072   */\n      dup3\n        /* \"#utility.yul\":1059:1077   */\n      add\n        /* \"#utility.yul\":1051:1077   */\n      swap1\n      pop\n        /* \"#utility.yul\":1123:1132   */\n      dup2\n        /* \"#utility.yul\":1117:1121   */\n      dup2\n        /* \"#utility.yul\":1113:1133   */\n      sub\n        /* \"#utility.yul\":1109:1110   */\n      0x00\n        /* \"#utility.yul\":1098:1107   */\n      dup4\n        /* \"#utility.yul\":1094:1111   */\n      add\n        /* \"#utility.yul\":1087:1134   */\n      mstore\n        /* \"#utility.yul\":1151:1229   */\n      tag_164\n        /* \"#utility.yul\":1224:1228   */\n      dup2\n        /* \"#utility.yul\":1215:1221   */\n      dup5\n        /* \"#utility.yul\":1151:1229   */\n      tag_121\n      jump\t// in\n    tag_164:\n        /* \"#utility.yul\":1143:1229   */\n      swap1\n      pop\n        /* \"#utility.yul\":923:1236   */\n      swap3\n      swap2\n      pop\n      pop\n      jump\t// out\n        /* \"#utility.yul\":1242:1319   */\n    tag_122:\n        /* \"#utility.yul\":1279:1286   */\n      0x00\n        /* \"#utility.yul\":1308:1313   */\n      dup2\n        /* \"#utility.yul\":1297:1313   */\n      swap1\n      pop\n        /* \"#utility.yul\":1242:1319   */\n      swap2\n      swap1\n      pop\n      jump\t// out\n        /* \"#utility.yul\":1325:1443   */\n    tag_123:\n        /* \"#utility.yul\":1412:1436   */\n      tag_167\n        /* \"#utility.yul\":1430:1435   */\n      dup2\n        /* \"#utility.yul\":1412:1436   */\n      tag_122\n      jump\t// in\n    tag_167:\n        /* \"#utility.yul\":1407:1410   */\n      dup3\n        /* \"#utility.yul\":1400:1437   */\n      mstore\n        /* \"#utility.yul\":1325:1443   */\n      pop\n      pop\n      jump\t// out\n        /* \"#utility.yul\":1449:1671   */\n    tag_25:\n        /* \"#utility.yul\":1542:1546   */\n      0x00\n        /* \"#utility.yul\":1580:1582   */\n      0x20\n        /* \"#utility.yul\":1569:1578   */\n      dup3\n        /* \"#utility.yul\":1565:1583   */\n      add\n        /* \"#utility.yul\":1557:1583   */\n      swap1\n      pop\n        /* \"#utility.yul\":1593:1664   */\n      tag_169\n        /* \"#utility.yul\":1661:1662   */\n      0x00\n        /* \"#utility.yul\":1650:1659   */\n      dup4\n        /* \"#utility.yul\":1646:1663   */\n      add\n        /* \"#utility.yul\":1637:1643   */\n      dup5\n        /* \"#utility.yul\":1593:1664   */\n      tag_123\n      jump\t// in\n    tag_169:\n        /* \"#utility.yul\":1449:1671   */\n      swap3\n      swap2\n      pop\n      pop\n      jump\t// out\n        /* \"#utility.yul\":1758:1875   */\n    tag_125:\n        /* \"#utility.yul\":1867:1868   */\n      0x00\n        /* \"#utility.yul\":1864:1865   */\n      0x00\n        /* \"#utility.yul\":1857:1869   */\n      revert\n        /* \"#utility.yul\":2004:2130   */\n    tag_127:\n        /* \"#utility.yul\":2041:2048   */\n      0x00\n        /* \"#utility.yul\":2081:2123   */\n      0xffffffffffffffffffffffffffffffffffffffff\n        /* \"#utility.yul\":2074:2079   */\n      dup3\n        /* \"#utility.yul\":2070:2124   */\n      and\n        /* \"#utility.yul\":2059:2124   */\n      swap1\n      pop\n        /* \"#utility.yul\":2004:2130   */\n      swap2\n      swap1\n      pop\n      jump\t// out\n        /* \"#utility.yul\":2136:2232   */\n    tag_128:\n        /* \"#utility.yul\":2173:2180   */\n      0x00\n        /* \"#utility.yul\":2202:2226   */\n      tag_175\n        /* \"#utility.yul\":2220:2225   */\n      dup3\n        /* \"#utility.yul\":2202:2226   */\n      tag_127\n      jump\t// in\n    tag_175:\n        /* \"#utility.yul\":2191:2226   */\n      swap1\n      pop\n        /* \"#utility.yul\":2136:2232   */\n      swap2\n      swap1\n      pop\n      jump\t// out\n        /* \"#utility.yul\":2238:2360   */\n    tag_129:\n        /* \"#utility.yul\":2311:2335   */\n      tag_177\n        /* \"#utility.yul\":2329:2334   */\n      dup2\n        /* \"#utility.yul\":2311:2335   */\n      tag_128\n      jump\t// in\n    tag_177:\n        /* \"#utility.yul\":2304:2309   */\n      dup2\n        /* \"#utility.yul\":2301:2336   */\n      eq\n        /* \"#utility.yul\":2291:2354   */\n      tag_178\n      jumpi\n        /* \"#utility.yul\":2350:2351   */\n      0x00\n        /* \"#utility.yul\":2347:2348   */\n      0x00\n        /* \"#utility.yul\":2340:2352   */\n      revert\n        /* \"#utility.yul\":2291:2354   */\n    tag_178:\n        /* \"#utility.yul\":2238:2360   */\n      pop\n      jump\t// out\n        /* \"#utility.yul\":2366:2505   */\n    tag_130:\n        /* \"#utility.yul\":2412:2417   */\n      0x00\n        /* \"#utility.yul\":2450:2456   */\n      dup2\n        /* \"#utility.yul\":2437:2457   */\n      calldataload\n        /* \"#utility.yul\":2428:2457   */\n      swap1\n      pop\n        /* \"#utility.yul\":2466:2499   */\n      tag_180\n        /* \"#utility.yul\":2493:2498   */\n      dup2\n        /* \"#utility.yul\":2466:2499   */\n      tag_129\n      jump\t// in\n    tag_180:\n        /* \"#utility.yul\":2366:2505   */\n      swap3\n      swap2\n      pop\n      pop\n      jump\t// out\n        /* \"#utility.yul\":2511:2840   */\n    tag_28:\n        /* \"#utility.yul\":2570:2576   */\n      0x00\n        /* \"#utility.yul\":2619:2621   */\n      0x20\n        /* \"#utility.yul\":2607:2616   */\n      dup3\n        /* \"#utility.yul\":2598:2605   */\n      dup5\n        /* \"#utility.yul\":2594:2617   */\n      sub\n        /* \"#utility.yul\":2590:2622   */\n      slt\n        /* \"#utility.yul\":2587:2706   */\n      iszero\n      tag_182\n      jumpi\n        /* \"#utility.yul\":2625:2704   */\n      tag_183\n      tag_125\n      jump\t// in\n    tag_183:\n        /* \"#utility.yul\":2587:2706   */\n    tag_182:\n        /* \"#utility.yul\":2745:2746   */\n      0x00\n        /* \"#utility.yul\":2770:2823   */\n      tag_184\n        /* \"#utility.yul\":2815:2822   */\n      dup5\n        /* \"#utility.yul\":2806:2812   */\n      dup3\n        /* \"#utility.yul\":2795:2804   */\n      dup6\n        /* \"#utility.yul\":2791:2813   */\n      add\n        /* \"#utility.yul\":2770:2823   */\n      tag_130\n      jump\t// in\n    tag_184:\n        /* \"#utility.yul\":2760:2823   */\n      swap2\n      pop\n        /* \"#utility.yul\":2716:2833   */\n      pop\n        /* \"#utility.yul\":2511:2840   */\n      swap3\n      swap2\n      pop\n      pop\n      jump\t// out\n        /* \"#utility.yul\":2846:2968   */\n    tag_131:\n        /* \"#utility.yul\":2919:2943   */\n      tag_186\n        /* \"#utility.yul\":2937:2942   */\n      dup2\n        /* \"#utility.yul\":2919:2943   */\n      tag_122\n      jump\t// in\n    tag_186:\n        /* \"#utility.yul\":2912:2917   */\n      dup2\n        /* \"#utility.yul\":2909:2944   */\n      eq\n        /* \"#utility.yul\":2899:2962   */\n      tag_187\n      jumpi\n        /* \"#utility.yul\":2958:2959   */\n      0x00\n        /* \"#utility.yul\":2955:2956   */\n      0x00\n        /* \"#utility.yul\":2948:2960   */\n      revert\n        /* \"#utility.yul\":2899:2962   */\n    tag_187:\n        /* \"#utility.yul\":2846:2968   */\n      pop\n      jump\t// out\n        /* \"#utility.yul\":2974:3113   */\n    tag_132:\n        /* \"#utility.yul\":3020:3025   */\n      0x00\n        /* \"#utility.yul\":3058:3064   */\n      dup2\n        /* \"#utility.yul\":3045:3065   */\n      calldataload\n        /* \"#utility.yul\":3036:3065   */\n      swap1\n      pop\n        /* \"#utility.yul\":3074:3107   */\n      tag_189\n        /* \"#utility.yul\":3101:3106   */\n      dup2\n        /* \"#utility.yul\":3074:3107   */\n      tag_131\n      jump\t// in\n    tag_189:\n        /* \"#utility.yul\":2974:3113   */\n      swap3\n      swap2\n      pop\n      pop\n      jump\t// out\n        /* \"#utility.yul\":3119:3448   */\n    tag_33:\n        /* \"#utility.yul\":3178:3184   */\n      0x00\n        /* \"#utility.yul\":3227:3229   */\n      0x20\n        /* \"#utility.yul\":3215:3224   */\n      dup3\n        /* \"#utility.yul\":3206:3213   */\n      dup5\n        /* \"#utility.yul\":3202:3225   */\n      sub\n        /* \"#utility.yul\":3198:3230   */\n      slt\n        /* \"#utility.yul\":3195:3314   */\n      iszero\n      tag_191\n      jumpi\n        /* \"#utility.yul\":3233:3312   */\n      tag_192\n      tag_125\n      jump\t// in\n    tag_192:\n        /* \"#utility.yul\":3195:3314   */\n    tag_191:\n        /* \"#utility.yul\":3353:3354   */\n      0x00\n        /* \"#utility.yul\":3378:3431   */\n      tag_193\n        /* \"#utility.yul\":3423:3430   */\n      dup5\n        /* \"#utility.yul\":3414:3420   */\n      dup3\n        /* \"#utility.yul\":3403:3412   */\n      dup6\n        /* \"#utility.yul\":3399:3421   */\n      add\n        /* \"#utility.yul\":3378:3431   */\n      tag_132\n      jump\t// in\n    tag_193:\n        /* \"#utility.yul\":3368:3431   */\n      swap2\n      pop\n        /* \"#utility.yul\":3324:3441   */\n      pop\n        /* \"#utility.yul\":3119:3448   */\n      swap3\n      swap2\n      pop\n      pop\n      jump\t// out\n        /* \"#utility.yul\":3454:3591   */\n    tag_133:\n        /* \"#utility.yul\":3544:3550   */\n      0x00\n        /* \"#utility.yul\":3578:3583   */\n      dup2\n        /* \"#utility.yul\":3572:3584   */\n      mload\n        /* \"#utility.yul\":3562:3584   */\n      swap1\n      pop\n        /* \"#utility.yul\":3454:3591   */\n      swap2\n      swap1\n      pop\n      jump\t// out\n        /* \"#utility.yul\":3597:3804   */\n    tag_134:\n        /* \"#utility.yul\":3719:3730   */\n      0x00\n        /* \"#utility.yul\":3753:3759   */\n      dup3\n        /* \"#utility.yul\":3748:3751   */\n      dup3\n        /* \"#utility.yul\":3741:3760   */\n      mstore\n        /* \"#utility.yul\":3793:3797   */\n      0x20\n        /* \"#utility.yul\":3788:3791   */\n      dup3\n        /* \"#utility.yul\":3784:3798   */\n      add\n        /* \"#utility.yul\":3769:3798   */\n      swap1\n      pop\n        /* \"#utility.yul\":3597:3804   */\n      swap3\n      swap2\n      pop\n      pop\n      jump\t// out\n        /* \"#utility.yul\":3810:3965   */\n    tag_135:\n        /* \"#utility.yul\":3900:3904   */\n      0x00\n        /* \"#utility.yul\":3923:3926   */\n      dup2\n        /* \"#utility.yul\":3915:3926   */\n      swap1\n      pop\n        /* \"#utility.yul\":3953:3957   */\n      0x20\n        /* \"#utility.yul\":3948:3951   */\n      dup3\n        /* \"#utility.yul\":3944:3958   */\n      add\n        /* \"#utility.yul\":3936:3958   */\n      swap1\n      pop\n        /* \"#utility.yul\":3810:3965   */\n      swap2\n      swap1\n      pop\n      jump\t// out\n        /* \"#utility.yul\":3971:4079   */\n    tag_136:\n        /* \"#utility.yul\":4048:4072   */\n      tag_198\n        /* \"#utility.yul\":4066:4071   */\n      dup2\n        /* \"#utility.yul\":4048:4072   */\n      tag_122\n      jump\t// in\n    tag_198:\n        /* \"#utility.yul\":4043:4046   */\n      dup3\n        /* \"#utility.yul\":4036:4073   */\n      mstore\n        /* \"#utility.yul\":3971:4079   */\n      pop\n      pop\n      jump\t// out\n        /* \"#utility.yul\":4085:4193   */\n    tag_137:\n        /* \"#utility.yul\":4162:4186   */\n      tag_200\n        /* \"#utility.yul\":4180:4185   */\n      dup2\n        /* \"#utility.yul\":4162:4186   */\n      tag_128\n      jump\t// in\n    tag_200:\n        /* \"#utility.yul\":4157:4160   */\n      dup3\n        /* \"#utility.yul\":4150:4187   */\n      mstore\n        /* \"#utility.yul\":4085:4193   */\n      pop\n      pop\n      jump\t// out\n        /* \"#utility.yul\":4257:4757   */\n    tag_138:\n        /* \"#utility.yul\":4390:4394   */\n      0x40\n        /* \"#utility.yul\":4385:4388   */\n      dup3\n        /* \"#utility.yul\":4381:4395   */\n      add\n        /* \"#utility.yul\":4479:4483   */\n      0x00\n        /* \"#utility.yul\":4472:4477   */\n      dup3\n        /* \"#utility.yul\":4468:4484   */\n      add\n        /* \"#utility.yul\":4462:4485   */\n      mload\n        /* \"#utility.yul\":4498:4561   */\n      tag_202\n        /* \"#utility.yul\":4555:4559   */\n      0x00\n        /* \"#utility.yul\":4550:4553   */\n      dup6\n        /* \"#utility.yul\":4546:4560   */\n      add\n        /* \"#utility.yul\":4532:4544   */\n      dup3\n        /* \"#utility.yul\":4498:4561   */\n      tag_136\n      jump\t// in\n    tag_202:\n        /* \"#utility.yul\":4405:4571   */\n      pop\n        /* \"#utility.yul\":4658:4662   */\n      0x20\n        /* \"#utility.yul\":4651:4656   */\n      dup3\n        /* \"#utility.yul\":4647:4663   */\n      add\n        /* \"#utility.yul\":4641:4664   */\n      mload\n        /* \"#utility.yul\":4677:4740   */\n      tag_203\n        /* \"#utility.yul\":4734:4738   */\n      0x20\n        /* \"#utility.yul\":4729:4732   */\n      dup6\n        /* \"#utility.yul\":4725:4739   */\n      add\n        /* \"#utility.yul\":4711:4723   */\n      dup3\n        /* \"#utility.yul\":4677:4740   */\n      tag_137\n      jump\t// in\n    tag_203:\n        /* \"#utility.yul\":4581:4750   */\n      pop\n        /* \"#utility.yul\":4359:4757   */\n      pop\n        /* \"#utility.yul\":4257:4757   */\n      pop\n      pop\n      jump\t// out\n        /* \"#utility.yul\":4763:5034   */\n    tag_139:\n        /* \"#utility.yul\":4878:4888   */\n      0x00\n        /* \"#utility.yul\":4899:4991   */\n      tag_205\n        /* \"#utility.yul\":4987:4990   */\n      dup4\n        /* \"#utility.yul\":4979:4985   */\n      dup4\n        /* \"#utility.yul\":4899:4991   */\n      tag_138\n      jump\t// in\n    tag_205:\n        /* \"#utility.yul\":5023:5027   */\n      0x40\n        /* \"#utility.yul\":5018:5021   */\n      dup4\n        /* \"#utility.yul\":5014:5028   */\n      add\n        /* \"#utility.yul\":5000:5028   */\n      swap1\n      pop\n        /* \"#utility.yul\":4763:5034   */\n      swap3\n      swap2\n      pop\n      pop\n      jump\t// out\n        /* \"#utility.yul\":5040:5176   */\n    tag_140:\n        /* \"#utility.yul\":5133:5137   */\n      0x00\n        /* \"#utility.yul\":5165:5169   */\n      0x20\n        /* \"#utility.yul\":5160:5163   */\n      dup3\n        /* \"#utility.yul\":5156:5170   */\n      add\n        /* \"#utility.yul\":5148:5170   */\n      swap1\n      pop\n        /* \"#utility.yul\":5040:5176   */\n      swap2\n      swap1\n      pop\n      jump\t// out\n        /* \"#utility.yul\":5244:6160   */\n    tag_141:\n        /* \"#utility.yul\":5409:5412   */\n      0x00\n        /* \"#utility.yul\":5438:5515   */\n      tag_208\n        /* \"#utility.yul\":5509:5514   */\n      dup3\n        /* \"#utility.yul\":5438:5515   */\n      tag_133\n      jump\t// in\n    tag_208:\n        /* \"#utility.yul\":5531:5640   */\n      tag_209\n        /* \"#utility.yul\":5633:5639   */\n      dup2\n        /* \"#utility.yul\":5628:5631   */\n      dup6\n        /* \"#utility.yul\":5531:5640   */\n      tag_134\n      jump\t// in\n    tag_209:\n        /* \"#utility.yul\":5524:5640   */\n      swap4\n      pop\n        /* \"#utility.yul\":5664:5743   */\n      tag_210\n        /* \"#utility.yul\":5737:5742   */\n      dup4\n        /* \"#utility.yul\":5664:5743   */\n      tag_135\n      jump\t// in\n    tag_210:\n        /* \"#utility.yul\":5766:5773   */\n      dup1\n        /* \"#utility.yul\":5797:5798   */\n      0x00\n        /* \"#utility.yul\":5782:6135   */\n    tag_211:\n        /* \"#utility.yul\":5807:5813   */\n      dup4\n        /* \"#utility.yul\":5804:5805   */\n      dup2\n        /* \"#utility.yul\":5801:5814   */\n      lt\n        /* \"#utility.yul\":5782:6135   */\n      iszero\n      tag_213\n      jumpi\n        /* \"#utility.yul\":5883:5889   */\n      dup2\n        /* \"#utility.yul\":5877:5890   */\n      mload\n        /* \"#utility.yul\":5910:6019   */\n      tag_214\n        /* \"#utility.yul\":6015:6018   */\n      dup9\n        /* \"#utility.yul\":6000:6013   */\n      dup3\n        /* \"#utility.yul\":5910:6019   */\n      tag_139\n      jump\t// in\n    tag_214:\n        /* \"#utility.yul\":5903:6019   */\n      swap8\n      pop\n        /* \"#utility.yul\":6042:6125   */\n      tag_215\n        /* \"#utility.yul\":6118:6124   */\n      dup4\n        /* \"#utility.yul\":6042:6125   */\n      tag_140\n      jump\t// in\n    tag_215:\n        /* \"#utility.yul\":6032:6125   */\n      swap3\n      pop\n        /* \"#utility.yul\":5842:6135   */\n      pop\n        /* \"#utility.yul\":5829:5830   */\n      0x01\n        /* \"#utility.yul\":5826:5827   */\n      dup2\n        /* \"#utility.yul\":5822:5831   */\n      add\n        /* \"#utility.yul\":5817:5831   */\n      swap1\n      pop\n        /* \"#utility.yul\":5782:6135   */\n      jump(tag_211)\n    tag_213:\n        /* \"#utility.yul\":5786:5800   */\n      pop\n        /* \"#utility.yul\":6151:6154   */\n      dup6\n        /* \"#utility.yul\":6144:6154   */\n      swap4\n      pop\n        /* \"#utility.yul\":5414:6160   */\n      pop\n      pop\n      pop\n        /* \"#utility.yul\":5244:6160   */\n      swap3\n      swap2\n      pop\n      pop\n      jump\t// out\n        /* \"#utility.yul\":6166:6631   */\n    tag_42:\n        /* \"#utility.yul\":6355:6359   */\n      0x00\n        /* \"#utility.yul\":6393:6395   */\n      0x20\n        /* \"#utility.yul\":6382:6391   */\n      dup3\n        /* \"#utility.yul\":6378:6396   */\n      add\n        /* \"#utility.yul\":6370:6396   */\n      swap1\n      pop\n        /* \"#utility.yul\":6442:6451   */\n      dup2\n        /* \"#utility.yul\":6436:6440   */\n      dup2\n        /* \"#utility.yul\":6432:6452   */\n      sub\n        /* \"#utility.yul\":6428:6429   */\n      0x00\n        /* \"#utility.yul\":6417:6426   */\n      dup4\n        /* \"#utility.yul\":6413:6430   */\n      add\n        /* \"#utility.yul\":6406:6453   */\n      mstore\n        /* \"#utility.yul\":6470:6624   */\n      tag_217\n        /* \"#utility.yul\":6619:6623   */\n      dup2\n        /* \"#utility.yul\":6610:6616   */\n      dup5\n        /* \"#utility.yul\":6470:6624   */\n      tag_141\n      jump\t// in\n    tag_217:\n        /* \"#utility.yul\":6462:6624   */\n      swap1\n      pop\n        /* \"#utility.yul\":6166:6631   */\n      swap3\n      swap2\n      pop\n      pop\n      jump\t// out\n        /* \"#utility.yul\":6637:6755   */\n    tag_142:\n        /* \"#utility.yul\":6724:6748   */\n      tag_219\n        /* \"#utility.yul\":6742:6747   */\n      dup2\n        /* \"#utility.yul\":6724:6748   */\n      tag_128\n      jump\t// in\n    tag_219:\n        /* \"#utility.yul\":6719:6722   */\n      dup3\n        /* \"#utility.yul\":6712:6749   */\n      mstore\n        /* \"#utility.yul\":6637:6755   */\n      pop\n      pop\n      jump\t// out\n        /* \"#utility.yul\":6761:6983   */\n    tag_46:\n        /* \"#utility.yul\":6854:6858   */\n      0x00\n        /* \"#utility.yul\":6892:6894   */\n      0x20\n        /* \"#utility.yul\":6881:6890   */\n      dup3\n        /* \"#utility.yul\":6877:6895   */\n      add\n        /* \"#utility.yul\":6869:6895   */\n      swap1\n      pop\n        /* \"#utility.yul\":6905:6976   */\n      tag_221\n        /* \"#utility.yul\":6973:6974   */\n      0x00\n        /* \"#utility.yul\":6962:6971   */\n      dup4\n        /* \"#utility.yul\":6958:6975   */\n      add\n        /* \"#utility.yul\":6949:6955   */\n      dup5\n        /* \"#utility.yul\":6905:6976   */\n      tag_142\n      jump\t// in\n    tag_221:\n        /* \"#utility.yul\":6761:6983   */\n      swap3\n      swap2\n      pop\n      pop\n      jump\t// out\n        /* \"#utility.yul\":6989:7463   */\n    tag_52:\n        /* \"#utility.yul\":7057:7063   */\n      0x00\n        /* \"#utility.yul\":7065:7071   */\n      0x00\n        /* \"#utility.yul\":7114:7116   */\n      0x40\n        /* \"#utility.yul\":7102:7111   */\n      dup4\n        /* \"#utility.yul\":7093:7100   */\n      dup6\n        /* \"#utility.yul\":7089:7112   */\n      sub\n        /* \"#utility.yul\":7085:7117   */\n      slt\n        /* \"#utility.yul\":7082:7201   */\n      iszero\n      tag_223\n      jumpi\n        /* \"#utility.yul\":7120:7199   */\n      tag_224\n      tag_125\n      jump\t// in\n    tag_224:\n        /* \"#utility.yul\":7082:7201   */\n    tag_223:\n        /* \"#utility.yul\":7240:7241   */\n      0x00\n        /* \"#utility.yul\":7265:7318   */\n      tag_225\n        /* \"#utility.yul\":7310:7317   */\n      dup6\n        /* \"#utility.yul\":7301:7307   */\n      dup3\n        /* \"#utility.yul\":7290:7299   */\n      dup7\n        /* \"#utility.yul\":7286:7308   */\n      add\n        /* \"#utility.yul\":7265:7318   */\n      tag_132\n      jump\t// in\n    tag_225:\n        /* \"#utility.yul\":7255:7318   */\n      swap3\n      pop\n        /* \"#utility.yul\":7211:7328   */\n      pop\n        /* \"#utility.yul\":7367:7369   */\n      0x20\n        /* \"#utility.yul\":7393:7446   */\n      tag_226\n        /* \"#utility.yul\":7438:7445   */\n      dup6\n        /* \"#utility.yul\":7429:7435   */\n      dup3\n        /* \"#utility.yul\":7418:7427   */\n      dup7\n        /* \"#utility.yul\":7414:7436   */\n      add\n        /* \"#utility.yul\":7393:7446   */\n      tag_130\n      jump\t// in\n    tag_226:\n        /* \"#utility.yul\":7383:7446   */\n      swap2\n      pop\n        /* \"#utility.yul\":7338:7456   */\n      pop\n        /* \"#utility.yul\":6989:7463   */\n      swap3\n      pop\n      swap3\n      swap1\n      pop\n      jump\t// out\n        /* \"#utility.yul\":7469:7943   */\n    tag_59:\n        /* \"#utility.yul\":7537:7543   */\n      0x00\n        /* \"#utility.yul\":7545:7551   */\n      0x00\n        /* \"#utility.yul\":7594:7596   */\n      0x40\n        /* \"#utility.yul\":7582:7591   */\n      dup4\n        /* \"#utility.yul\":7573:7580   */\n      dup6\n        /* \"#utility.yul\":7569:7592   */\n      sub\n        /* \"#utility.yul\":7565:7597   */\n      slt\n        /* \"#utility.yul\":7562:7681   */\n      iszero\n      tag_228\n      jumpi\n        /* \"#utility.yul\":7600:7679   */\n      tag_229\n      tag_125\n      jump\t// in\n    tag_229:\n        /* \"#utility.yul\":7562:7681   */\n    tag_228:\n        /* \"#utility.yul\":7720:7721   */\n      0x00\n        /* \"#utility.yul\":7745:7798   */\n      tag_230\n        /* \"#utility.yul\":7790:7797   */\n      dup6\n        /* \"#utility.yul\":7781:7787   */\n      dup3\n        /* \"#utility.yul\":7770:7779   */\n      dup7\n        /* \"#utility.yul\":7766:7788   */\n      add\n        /* \"#utility.yul\":7745:7798   */\n      tag_130\n      jump\t// in\n    tag_230:\n        /* \"#utility.yul\":7735:7798   */\n      swap3\n      pop\n        /* \"#utility.yul\":7691:7808   */\n      pop\n        /* \"#utility.yul\":7847:7849   */\n      0x20\n        /* \"#utility.yul\":7873:7926   */\n      tag_231\n        /* \"#utility.yul\":7918:7925   */\n      dup6\n        /* \"#utility.yul\":7909:7915   */\n      dup3\n        /* \"#utility.yul\":7898:7907   */\n      dup7\n        /* \"#utility.yul\":7894:7916   */\n      add\n        /* \"#utility.yul\":7873:7926   */\n      tag_132\n      jump\t// in\n    tag_231:\n        /* \"#utility.yul\":7863:7926   */\n      swap2\n      pop\n        /* \"#utility.yul\":7818:7936   */\n      pop\n        /* \"#utility.yul\":7469:7943   */\n      swap3\n      pop\n      swap3\n      swap1\n      pop\n      jump\t// out\n        /* \"#utility.yul\":7949:8281   */\n    tag_62:\n        /* \"#utility.yul\":8070:8074   */\n      0x00\n        /* \"#utility.yul\":8108:8110   */\n      0x40\n        /* \"#utility.yul\":8097:8106   */\n      dup3\n        /* \"#utility.yul\":8093:8111   */\n      add\n        /* \"#utility.yul\":8085:8111   */\n      swap1\n      pop\n        /* \"#utility.yul\":8121:8192   */\n      tag_233\n        /* \"#utility.yul\":8189:8190   */\n      0x00\n        /* \"#utility.yul\":8178:8187   */\n      dup4\n        /* \"#utility.yul\":8174:8191   */\n      add\n        /* \"#utility.yul\":8165:8171   */\n      dup6\n        /* \"#utility.yul\":8121:8192   */\n      tag_123\n      jump\t// in\n    tag_233:\n        /* \"#utility.yul\":8202:8274   */\n      tag_234\n        /* \"#utility.yul\":8270:8272   */\n      0x20\n        /* \"#utility.yul\":8259:8268   */\n      dup4\n        /* \"#utility.yul\":8255:8273   */\n      add\n        /* \"#utility.yul\":8246:8252   */\n      dup5\n        /* \"#utility.yul\":8202:8274   */\n      tag_142\n      jump\t// in\n    tag_234:\n        /* \"#utility.yul\":7949:8281   */\n      swap4\n      swap3\n      pop\n      pop\n      pop\n      jump\t// out\n        /* \"#utility.yul\":8287:8467   */\n    tag_143:\n        /* \"#utility.yul\":8335:8412   */\n      0x4e487b7100000000000000000000000000000000000000000000000000000000\n        /* \"#utility.yul\":8332:8333   */\n      0x00\n        /* \"#utility.yul\":8325:8413   */\n      mstore\n        /* \"#utility.yul\":8432:8436   */\n      0x22\n        /* \"#utility.yul\":8429:8430   */\n      0x04\n        /* \"#utility.yul\":8422:8437   */\n      mstore\n        /* \"#utility.yul\":8456:8460   */\n      0x24\n        /* \"#utility.yul\":8453:8454   */\n      0x00\n        /* \"#utility.yul\":8446:8461   */\n      revert\n        /* \"#utility.yul\":8473:8793   */\n    tag_69:\n        /* \"#utility.yul\":8517:8523   */\n      0x00\n        /* \"#utility.yul\":8554:8555   */\n      0x02\n        /* \"#utility.yul\":8548:8552   */\n      dup3\n        /* \"#utility.yul\":8544:8556   */\n      div\n        /* \"#utility.yul\":8534:8556   */\n      swap1\n      pop\n        /* \"#utility.yul\":8601:8602   */\n      0x01\n        /* \"#utility.yul\":8595:8599   */\n      dup3\n        /* \"#utility.yul\":8591:8603   */\n      and\n        /* \"#utility.yul\":8622:8640   */\n      dup1\n        /* \"#utility.yul\":8612:8693   */\n      tag_237\n      jumpi\n        /* \"#utility.yul\":8678:8682   */\n      0x7f\n        /* \"#utility.yul\":8670:8676   */\n      dup3\n        /* \"#utility.yul\":8666:8683   */\n      and\n        /* \"#utility.yul\":8656:8683   */\n      swap2\n      pop\n        /* \"#utility.yul\":8612:8693   */\n    tag_237:\n        /* \"#utility.yul\":8740:8742   */\n      0x20\n        /* \"#utility.yul\":8732:8738   */\n      dup3\n        /* \"#utility.yul\":8729:8743   */\n      lt\n        /* \"#utility.yul\":8709:8727   */\n      dup2\n        /* \"#utility.yul\":8706:8744   */\n      sub\n        /* \"#utility.yul\":8703:8787   */\n      tag_238\n      jumpi\n        /* \"#utility.yul\":8759:8777   */\n      tag_239\n      tag_143\n      jump\t// in\n    tag_239:\n        /* \"#utility.yul\":8703:8787   */\n    tag_238:\n        /* \"#utility.yul\":8524:8793   */\n      pop\n        /* \"#utility.yul\":8473:8793   */\n      swap2\n      swap1\n      pop\n      jump\t// out\n        /* \"#utility.yul\":8799:8974   */\n    tag_144:\n        /* \"#utility.yul\":8939:8966   */\n      0x4e6f7420656e6f75676820746f6b656e7320746f206275726e00000000000000\n        /* \"#utility.yul\":8935:8936   */\n      0x00\n        /* \"#utility.yul\":8927:8933   */\n      dup3\n        /* \"#utility.yul\":8923:8937   */\n      add\n        /* \"#utility.yul\":8916:8967   */\n      mstore\n        /* \"#utility.yul\":8799:8974   */\n      pop\n      jump\t// out\n        /* \"#utility.yul\":8980:9346   */\n    tag_145:\n        /* \"#utility.yul\":9122:9125   */\n      0x00\n        /* \"#utility.yul\":9143:9210   */\n      tag_242\n        /* \"#utility.yul\":9207:9209   */\n      0x19\n        /* \"#utility.yul\":9202:9205   */\n      dup4\n        /* \"#utility.yul\":9143:9210   */\n      tag_118\n      jump\t// in\n    tag_242:\n        /* \"#utility.yul\":9136:9210   */\n      swap2\n      pop\n        /* \"#utility.yul\":9219:9312   */\n      tag_243\n        /* \"#utility.yul\":9308:9311   */\n      dup3\n        /* \"#utility.yul\":9219:9312   */\n      tag_144\n      jump\t// in\n    tag_243:\n        /* \"#utility.yul\":9337:9339   */\n      0x20\n        /* \"#utility.yul\":9332:9335   */\n      dup3\n        /* \"#utility.yul\":9328:9340   */\n      add\n        /* \"#utility.yul\":9321:9340   */\n      swap1\n      pop\n        /* \"#utility.yul\":8980:9346   */\n      swap2\n      swap1\n      pop\n      jump\t// out\n        /* \"#utility.yul\":9352:9771   */\n    tag_77:\n        /* \"#utility.yul\":9518:9522   */\n      0x00\n        /* \"#utility.yul\":9556:9558   */\n      0x20\n        /* \"#utility.yul\":9545:9554   */\n      dup3\n        /* \"#utility.yul\":9541:9559   */\n      add\n        /* \"#utility.yul\":9533:9559   */\n      swap1\n      pop\n        /* \"#utility.yul\":9605:9614   */\n      dup2\n        /* \"#utility.yul\":9599:9603   */\n      dup2\n        /* \"#utility.yul\":9595:9615   */\n      sub\n        /* \"#utility.yul\":9591:9592   */\n      0x00\n        /* \"#utility.yul\":9580:9589   */\n      dup4\n        /* \"#utility.yul\":9576:9593   */\n      add\n        /* \"#utility.yul\":9569:9616   */\n      mstore\n        /* \"#utility.yul\":9633:9764   */\n      tag_245\n        /* \"#utility.yul\":9759:9763   */\n      dup2\n        /* \"#utility.yul\":9633:9764   */\n      tag_145\n      jump\t// in\n    tag_245:\n        /* \"#utility.yul\":9625:9764   */\n      swap1\n      pop\n        /* \"#utility.yul\":9352:9771   */\n      swap2\n      swap1\n      pop\n      jump\t// out\n        /* \"#utility.yul\":9777:9957   */\n    tag_146:\n        /* \"#utility.yul\":9825:9902   */\n      0x4e487b7100000000000000000000000000000000000000000000000000000000\n        /* \"#utility.yul\":9822:9823   */\n      0x00\n        /* \"#utility.yul\":9815:9903   */\n      mstore\n        /* \"#utility.yul\":9922:9926   */\n      0x11\n        /* \"#utility.yul\":9919:9920   */\n      0x04\n        /* \"#utility.yul\":9912:9927   */\n      mstore\n        /* \"#utility.yul\":9946:9950   */\n      0x24\n        /* \"#utility.yul\":9943:9944   */\n      0x00\n        /* \"#utility.yul\":9936:9951   */\n      revert\n        /* \"#utility.yul\":9963:10157   */\n    tag_79:\n        /* \"#utility.yul\":10003:10007   */\n      0x00\n        /* \"#utility.yul\":10023:10043   */\n      tag_248\n        /* \"#utility.yul\":10041:10042   */\n      dup3\n        /* \"#utility.yul\":10023:10043   */\n      tag_122\n      jump\t// in\n    tag_248:\n        /* \"#utility.yul\":10018:10043   */\n      swap2\n      pop\n        /* \"#utility.yul\":10057:10077   */\n      tag_249\n        /* \"#utility.yul\":10075:10076   */\n      dup4\n        /* \"#utility.yul\":10057:10077   */\n      tag_122\n      jump\t// in\n    tag_249:\n        /* \"#utility.yul\":10052:10077   */\n      swap3\n      pop\n        /* \"#utility.yul\":10101:10102   */\n      dup3\n        /* \"#utility.yul\":10098:10099   */\n      dup3\n        /* \"#utility.yul\":10094:10103   */\n      sub\n        /* \"#utility.yul\":10086:10103   */\n      swap1\n      pop\n        /* \"#utility.yul\":10125:10126   */\n      dup2\n        /* \"#utility.yul\":10119:10123   */\n      dup2\n        /* \"#utility.yul\":10116:10127   */\n      gt\n        /* \"#utility.yul\":10113:10150   */\n      iszero\n      tag_250\n      jumpi\n        /* \"#utility.yul\":10130:10148   */\n      tag_251\n      tag_146\n      jump\t// in\n    tag_251:\n        /* \"#utility.yul\":10113:10150   */\n    tag_250:\n        /* \"#utility.yul\":9963:10157   */\n      swap3\n      swap2\n      pop\n      pop\n      jump\t// out\n        /* \"#utility.yul\":10163:10333   */\n    tag_147:\n        /* \"#utility.yul\":10303:10325   */\n      0x496e73756666696369656e742062616c616e6365000000000000000000000000\n        /* \"#utility.yul\":10299:10300   */\n      0x00\n        /* \"#utility.yul\":10291:10297   */\n      dup3\n        /* \"#utility.yul\":10287:10301   */\n      add\n        /* \"#utility.yul\":10280:10326   */\n      mstore\n        /* \"#utility.yul\":10163:10333   */\n      pop\n      jump\t// out\n        /* \"#utility.yul\":10339:10705   */\n    tag_148:\n        /* \"#utility.yul\":10481:10484   */\n      0x00\n        /* \"#utility.yul\":10502:10569   */\n      tag_254\n        /* \"#utility.yul\":10566:10568   */\n      0x14\n        /* \"#utility.yul\":10561:10564   */\n      dup4\n        /* \"#utility.yul\":10502:10569   */\n      tag_118\n      jump\t// in\n    tag_254:\n        /* \"#utility.yul\":10495:10569   */\n      swap2\n      pop\n        /* \"#utility.yul\":10578:10671   */\n      tag_255\n        /* \"#utility.yul\":10667:10670   */\n      dup3\n        /* \"#utility.yul\":10578:10671   */\n      tag_147\n      jump\t// in\n    tag_255:\n        /* \"#utility.yul\":10696:10698   */\n      0x20\n        /* \"#utility.yul\":10691:10694   */\n      dup3\n        /* \"#utility.yul\":10687:10699   */\n      add\n        /* \"#utility.yul\":10680:10699   */\n      swap1\n      pop\n        /* \"#utility.yul\":10339:10705   */\n      swap2\n      swap1\n      pop\n      jump\t// out\n        /* \"#utility.yul\":10711:11130   */\n    tag_96:\n        /* \"#utility.yul\":10877:10881   */\n      0x00\n        /* \"#utility.yul\":10915:10917   */\n      0x20\n        /* \"#utility.yul\":10904:10913   */\n      dup3\n        /* \"#utility.yul\":10900:10918   */\n      add\n        /* \"#utility.yul\":10892:10918   */\n      swap1\n      pop\n        /* \"#utility.yul\":10964:10973   */\n      dup2\n        /* \"#utility.yul\":10958:10962   */\n      dup2\n        /* \"#utility.yul\":10954:10974   */\n      sub\n        /* \"#utility.yul\":10950:10951   */\n      0x00\n        /* \"#utility.yul\":10939:10948   */\n      dup4\n        /* \"#utility.yul\":10935:10952   */\n      add\n        /* \"#utility.yul\":10928:10975   */\n      mstore\n        /* \"#utility.yul\":10992:11123   */\n      tag_257\n        /* \"#utility.yul\":11118:11122   */\n      dup2\n        /* \"#utility.yul\":10992:11123   */\n      tag_148\n      jump\t// in\n    tag_257:\n        /* \"#utility.yul\":10984:11123   */\n      swap1\n      pop\n        /* \"#utility.yul\":10711:11130   */\n      swap2\n      swap1\n      pop\n      jump\t// out\n        /* \"#utility.yul\":11136:11327   */\n    tag_99:\n        /* \"#utility.yul\":11176:11179   */\n      0x00\n        /* \"#utility.yul\":11195:11215   */\n      tag_259\n        /* \"#utility.yul\":11213:11214   */\n      dup3\n        /* \"#utility.yul\":11195:11215   */\n      tag_122\n      jump\t// in\n    tag_259:\n        /* \"#utility.yul\":11190:11215   */\n      swap2\n      pop\n        /* \"#utility.yul\":11229:11249   */\n      tag_260\n        /* \"#utility.yul\":11247:11248   */\n      dup4\n        /* \"#utility.yul\":11229:11249   */\n      tag_122\n      jump\t// in\n    tag_260:\n        /* \"#utility.yul\":11224:11249   */\n      swap3\n      pop\n        /* \"#utility.yul\":11272:11273   */\n      dup3\n        /* \"#utility.yul\":11269:11270   */\n      dup3\n        /* \"#utility.yul\":11265:11274   */\n      add\n        /* \"#utility.yul\":11258:11274   */\n      swap1\n      pop\n        /* \"#utility.yul\":11293:11296   */\n      dup1\n        /* \"#utility.yul\":11290:11291   */\n      dup3\n        /* \"#utility.yul\":11287:11297   */\n      gt\n        /* \"#utility.yul\":11284:11320   */\n      iszero\n      tag_261\n      jumpi\n        /* \"#utility.yul\":11300:11318   */\n      tag_262\n      tag_146\n      jump\t// in\n    tag_262:\n        /* \"#utility.yul\":11284:11320   */\n    tag_261:\n        /* \"#utility.yul\":11136:11327   */\n      swap3\n      swap2\n      pop\n      pop\n      jump\t// out\n        /* \"#utility.yul\":11333:11507   */\n    tag_149:\n        /* \"#utility.yul\":11473:11499   */\n      0x4f6e6c79206f776e65722063616e2063616c6c20746869730000000000000000\n        /* \"#utility.yul\":11469:11470   */\n      0x00\n        /* \"#utility.yul\":11461:11467   */\n      dup3\n        /* \"#utility.yul\":11457:11471   */\n      add\n        /* \"#utility.yul\":11450:11500   */\n      mstore\n        /* \"#utility.yul\":11333:11507   */\n      pop\n      jump\t// out\n        /* \"#utility.yul\":11513:11879   */\n    tag_150:\n        /* \"#utility.yul\":11655:11658   */\n      0x00\n        /* \"#utility.yul\":11676:11743   */\n      tag_265\n        /* \"#utility.yul\":11740:11742   */\n      0x18\n        /* \"#utility.yul\":11735:11738   */\n      dup4\n        /* \"#utility.yul\":11676:11743   */\n      tag_118\n      jump\t// in\n    tag_265:\n        /* \"#utility.yul\":11669:11743   */\n      swap2\n      pop\n        /* \"#utility.yul\":11752:11845   */\n      tag_266\n        /* \"#utility.yul\":11841:11844   */\n      dup3\n        /* \"#utility.yul\":11752:11845   */\n      tag_149\n      jump\t// in\n    tag_266:\n        /* \"#utility.yul\":11870:11872   */\n      0x20\n        /* \"#utility.yul\":11865:11868   */\n      dup3\n        /* \"#utility.yul\":11861:11873   */\n      add\n        /* \"#utility.yul\":11854:11873   */\n      swap1\n      pop\n        /* \"#utility.yul\":11513:11879   */\n      swap2\n      swap1\n      pop\n      jump\t// out\n        /* \"#utility.yul\":11885:12304   */\n    tag_108:\n        /* \"#utility.yul\":12051:12055   */\n      0x00\n        /* \"#utility.yul\":12089:12091   */\n      0x20\n        /* \"#utility.yul\":12078:12087   */\n      dup3\n        /* \"#utility.yul\":12074:12092   */\n      add\n        /* \"#utility.yul\":12066:12092   */\n      swap1\n      pop\n        /* \"#utility.yul\":12138:12147   */\n      dup2\n        /* \"#utility.yul\":12132:12136   */\n      dup2\n        /* \"#utility.yul\":12128:12148   */\n      sub\n        /* \"#utility.yul\":12124:12125   */\n      0x00\n        /* \"#utility.yul\":12113:12122   */\n      dup4\n        /* \"#utility.yul\":12109:12126   */\n      add\n        /* \"#utility.yul\":12102:12149   */\n      mstore\n        /* \"#utility.yul\":12166:12297   */\n      tag_268\n        /* \"#utility.yul\":12292:12296   */\n      dup2\n        /* \"#utility.yul\":12166:12297   */\n      tag_150\n      jump\t// in\n    tag_268:\n        /* \"#utility.yul\":12158:12297   */\n      swap1\n      pop\n        /* \"#utility.yul\":11885:12304   */\n      swap2\n      swap1\n      pop\n      jump\t// out\n        /* \"#utility.yul\":12310:12479   */\n    tag_151:\n        /* \"#utility.yul\":12450:12471   */\n      0x4d617820737570706c7920657863656564656400000000000000000000000000\n        /* \"#utility.yul\":12446:12447   */\n      0x00\n        /* \"#utility.yul\":12438:12444   */\n      dup3\n        /* \"#utility.yul\":12434:12448   */\n      add\n        /* \"#utility.yul\":12427:12472   */\n      mstore\n        /* \"#utility.yul\":12310:12479   */\n      pop\n      jump\t// out\n        /* \"#utility.yul\":12485:12851   */\n    tag_152:\n        /* \"#utility.yul\":12627:12630   */\n      0x00\n        /* \"#utility.yul\":12648:12715   */\n      tag_271\n        /* \"#utility.yul\":12712:12714   */\n      0x13\n        /* \"#utility.yul\":12707:12710   */\n      dup4\n        /* \"#utility.yul\":12648:12715   */\n      tag_118\n      jump\t// in\n    tag_271:\n        /* \"#utility.yul\":12641:12715   */\n      swap2\n      pop\n        /* \"#utility.yul\":12724:12817   */\n      tag_272\n        /* \"#utility.yul\":12813:12816   */\n      dup3\n        /* \"#utility.yul\":12724:12817   */\n      tag_151\n      jump\t// in\n    tag_272:\n        /* \"#utility.yul\":12842:12844   */\n      0x20\n        /* \"#utility.yul\":12837:12840   */\n      dup3\n        /* \"#utility.yul\":12833:12845   */\n      add\n        /* \"#utility.yul\":12826:12845   */\n      swap1\n      pop\n        /* \"#utility.yul\":12485:12851   */\n      swap2\n      swap1\n      pop\n      jump\t// out\n        /* \"#utility.yul\":12857:13276   */\n    tag_113:\n        /* \"#utility.yul\":13023:13027   */\n      0x00\n        /* \"#utility.yul\":13061:13063   */\n      0x20\n        /* \"#utility.yul\":13050:13059   */\n      dup3\n        /* \"#utility.yul\":13046:13064   */\n      add\n        /* \"#utility.yul\":13038:13064   */\n      swap1\n      pop\n        /* \"#utility.yul\":13110:13119   */\n      dup2\n        /* \"#utility.yul\":13104:13108   */\n      dup2\n        /* \"#utility.yul\":13100:13120   */\n      sub\n        /* \"#utility.yul\":13096:13097   */\n      0x00\n        /* \"#utility.yul\":13085:13094   */\n      dup4\n        /* \"#utility.yul\":13081:13098   */\n      add\n        /* \"#utility.yul\":13074:13121   */\n      mstore\n        /* \"#utility.yul\":13138:13269   */\n      tag_274\n        /* \"#utility.yul\":13264:13268   */\n      dup2\n        /* \"#utility.yul\":13138:13269   */\n      tag_152\n      jump\t// in\n    tag_274:\n        /* \"#utility.yul\":13130:13269   */\n      swap1\n      pop\n        /* \"#utility.yul\":12857:13276   */\n      swap2\n      swap1\n      pop\n      jump\t// out\n\n    auxdata: 0xa264697066735822122004f8259a0ade5ead6ee113c649e1bbb6fe408301cbc61f05d73de8dfb026ec0364736f6c634300081e0033\n}\n",
				"bytecode": {
					"linkReferences": {},
					"object": "60806040526040518060400160405280600981526020017f454e5320546f6b656e00000000000000000000000000000000000000000000008152505f9081610047919061038e565b506040518060400160405280600381526020017f454e5300000000000000000000000000000000000000000000000000000000008152506001908161008c919061038e565b506127106002556301406f406003553480156100a6575f5ffd5b503360045f6101000a81548173ffffffffffffffffffffffffffffffffffffffff021916908373ffffffffffffffffffffffffffffffffffffffff16021790555060025460055f60045f9054906101000a900473ffffffffffffffffffffffffffffffffffffffff1673ffffffffffffffffffffffffffffffffffffffff1673ffffffffffffffffffffffffffffffffffffffff1681526020019081526020015f208190555061045d565b5f81519050919050565b7f4e487b71000000000000000000000000000000000000000000000000000000005f52604160045260245ffd5b7f4e487b71000000000000000000000000000000000000000000000000000000005f52602260045260245ffd5b5f60028204905060018216806101cc57607f821691505b6020821081036101df576101de610188565b5b50919050565b5f819050815f5260205f209050919050565b5f6020601f8301049050919050565b5f82821b905092915050565b5f600883026102417fffffffffffffffffffffffffffffffffffffffffffffffffffffffffffffffff82610206565b61024b8683610206565b95508019841693508086168417925050509392505050565b5f819050919050565b5f819050919050565b5f61028f61028a61028584610263565b61026c565b610263565b9050919050565b5f819050919050565b6102a883610275565b6102bc6102b482610296565b848454610212565b825550505050565b5f5f905090565b6102d36102c4565b6102de81848461029f565b505050565b5b81811015610301576102f65f826102cb565b6001810190506102e4565b5050565b601f82111561034657610317816101e5565b610320846101f7565b8101602085101561032f578190505b61034361033b856101f7565b8301826102e3565b50505b505050565b5f82821c905092915050565b5f6103665f198460080261034b565b1980831691505092915050565b5f61037e8383610357565b9150826002028217905092915050565b61039782610151565b67ffffffffffffffff8111156103b0576103af61015b565b5b6103ba82546101b5565b6103c5828285610305565b5f60209050601f8311600181146103f6575f84156103e4578287015190505b6103ee8582610373565b865550610455565b601f198416610404866101e5565b5f5b8281101561042b57848901518255600182019150602085019450602081019050610406565b868310156104485784890151610444601f891682610357565b8355505b6001600288020188555050505b505050505050565b6111248061046a5f395ff3fe608060405234801561000f575f5ffd5b50600436106100cd575f3560e01c80638da5cb5b1161008a578063c4e41b2211610064578063c4e41b22146101ff578063cc38b4771461021d578063d19650801461024e578063d5abeb0114610258576100cd565b80638da5cb5b146101a757806395d89b41146101c5578063b7760c8f146101e3576100cd565b806306fdde03146100d157806318160ddd146100ef57806327e235e31461010d57806342966c681461013d5780634c0f38c2146101595780637da2ba7c14610177575b5f5ffd5b6100d9610276565b6040516100e69190610b51565b60405180910390f35b6100f7610301565b6040516101049190610b89565b60405180910390f35b61012760048036038101906101229190610c00565b610307565b6040516101349190610b89565b60405180910390f35b61015760048036038101906101529190610c55565b61031c565b005b6101616104a8565b60405161016e9190610b89565b60405180910390f35b610191600480360381019061018c9190610c00565b6104b1565b60405161019e9190610d73565b60405180910390f35b6101af6105a8565b6040516101bc9190610da2565b60405180910390f35b6101cd6105cd565b6040516101da9190610b51565b60405180910390f35b6101fd60048036038101906101f89190610dbb565b610659565b005b6102076108cb565b6040516102149190610b89565b60405180910390f35b61023760048036038101906102329190610df9565b6108d4565b604051610245929190610e37565b60405180910390f35b61025661092d565b005b610260610adb565b60405161026d9190610b89565b60405180910390f35b5f805461028290610e8b565b80601f01602080910402602001604051908101604052809291908181526020018280546102ae90610e8b565b80156102f95780601f106102d0576101008083540402835291602001916102f9565b820191905f5260205f20905b8154815290600101906020018083116102dc57829003601f168201915b505050505081565b60025481565b6005602052805f5260405f205f915090505481565b8060055f3373ffffffffffffffffffffffffffffffffffffffff1673ffffffffffffffffffffffffffffffffffffffff1681526020019081526020015f2054101561039c576040517f08c379a000000000000000000000000000000000000000000000000000000000815260040161039390610f05565b60405180910390fd5b8060055f3373ffffffffffffffffffffffffffffffffffffffff1673ffffffffffffffffffffffffffffffffffffffff1681526020019081526020015f205f8282546103e89190610f50565b925050819055508060025f8282546104009190610f50565b925050819055507fc8b17f75f53401f272e9ee7fa431e81ba33779363238896180425a422420c8f76002546040516104389190610b89565b60405180910390a15f73ffffffffffffffffffffffffffffffffffffffff163373ffffffffffffffffffffffffffffffffffffffff167fddf252ad1be2c89b69c2b068fc378daa952ba7f163c4a11628f55a4df523b3ef8360405161049d9190610b89565b60405180910390a350565b5f600354905090565b606060065f8373ffffffffffffffffffffffffffffffffffffffff1673ffffffffffffffffffffffffffffffffffffffff1681526020019081526020015f20805480602002602001604051908101604052809291908181526020015f905b8282101561059d578382905f5260205f2090600202016040518060400160405290815f8201548152602001600182015f9054906101000a900473ffffffffffffffffffffffffffffffffffffffff1673ffffffffffffffffffffffffffffffffffffffff1673ffffffffffffffffffffffffffffffffffffffff16815250508152602001906001019061050f565b505050509050919050565b60045f9054906101000a900473ffffffffffffffffffffffffffffffffffffffff1681565b600180546105da90610e8b565b80601f016020809104026020016040519081016040528092919081815260200182805461060690610e8b565b80156106515780601f1061062857610100808354040283529160200191610651565b820191905f5260205f20905b81548152906001019060200180831161063457829003601f168201915b505050505081565b8160055f3373ffffffffffffffffffffffffffffffffffffffff1673ffffffffffffffffffffffffffffffffffffffff1681526020019081526020015f205410156106d9576040517f08c379a00000000000000000000000000000000000000000000000000000000081526004016106d090610fcd565b60405180910390fd5b8160055f3373ffffffffffffffffffffffffffffffffffffffff1673ffffffffffffffffffffffffffffffffffffffff1681526020019081526020015f205f8282546107259190610f50565b925050819055508160055f8373ffffffffffffffffffffffffffffffffffffffff1673ffffffffffffffffffffffffffffffffffffffff1681526020019081526020015f205f8282546107789190610feb565b925050819055505f60405180604001604052808481526020018373ffffffffffffffffffffffffffffffffffffffff16815250905060065f3373ffffffffffffffffffffffffffffffffffffffff1673ffffffffffffffffffffffffffffffffffffffff1681526020019081526020015f2081908060018154018082558091505060019003905f5260205f2090600202015f909190919091505f820151815f01556020820151816001015f6101000a81548173ffffffffffffffffffffffffffffffffffffffff021916908373ffffffffffffffffffffffffffffffffffffffff16021790555050508173ffffffffffffffffffffffffffffffffffffffff163373ffffffffffffffffffffffffffffffffffffffff167fddf252ad1be2c89b69c2b068fc378daa952ba7f163c4a11628f55a4df523b3ef856040516108be9190610b89565b60405180910390a3505050565b5f600254905090565b6006602052815f5260405f2081815481106108ed575f80fd5b905f5260205f2090600202015f9150915050805f015490806001015f9054906101000a900473ffffffffffffffffffffffffffffffffffffffff16905082565b60045f9054906101000a900473ffffffffffffffffffffffffffffffffffffffff1673ffffffffffffffffffffffffffffffffffffffff163373ffffffffffffffffffffffffffffffffffffffff16146109bc576040517f08c379a00000000000000000000000000000000000000000000000000000000081526004016109b390611068565b60405180910390fd5b6003546103e86002546109cf9190610feb565b1115610a10576040517f08c379a0000000000000000000000000000000000000000000000000000000008152600401610a07906110d0565b60405180910390fd5b6103e860025f828254610a239190610feb565b925050819055506103e860055f60045f9054906101000a900473ffffffffffffffffffffffffffffffffffffffff1673ffffffffffffffffffffffffffffffffffffffff1673ffffffffffffffffffffffffffffffffffffffff1681526020019081526020015f205f828254610a999190610feb565b925050819055507fc8b17f75f53401f272e9ee7fa431e81ba33779363238896180425a422420c8f7600254604051610ad19190610b89565b60405180910390a1565b60035481565b5f81519050919050565b5f82825260208201905092915050565b8281835e5f83830152505050565b5f601f19601f8301169050919050565b5f610b2382610ae1565b610b2d8185610aeb565b9350610b3d818560208601610afb565b610b4681610b09565b840191505092915050565b5f6020820190508181035f830152610b698184610b19565b905092915050565b5f819050919050565b610b8381610b71565b82525050565b5f602082019050610b9c5f830184610b7a565b92915050565b5f5ffd5b5f73ffffffffffffffffffffffffffffffffffffffff82169050919050565b5f610bcf82610ba6565b9050919050565b610bdf81610bc5565b8114610be9575f5ffd5b50565b5f81359050610bfa81610bd6565b92915050565b5f60208284031215610c1557610c14610ba2565b5b5f610c2284828501610bec565b91505092915050565b610c3481610b71565b8114610c3e575f5ffd5b50565b5f81359050610c4f81610c2b565b92915050565b5f60208284031215610c6a57610c69610ba2565b5b5f610c7784828501610c41565b91505092915050565b5f81519050919050565b5f82825260208201905092915050565b5f819050602082019050919050565b610cb281610b71565b82525050565b610cc181610bc5565b82525050565b604082015f820151610cdb5f850182610ca9565b506020820151610cee6020850182610cb8565b50505050565b5f610cff8383610cc7565b60408301905092915050565b5f602082019050919050565b5f610d2182610c80565b610d2b8185610c8a565b9350610d3683610c9a565b805f5b83811015610d66578151610d4d8882610cf4565b9750610d5883610d0b565b925050600181019050610d39565b5085935050505092915050565b5f6020820190508181035f830152610d8b8184610d17565b905092915050565b610d9c81610bc5565b82525050565b5f602082019050610db55f830184610d93565b92915050565b5f5f60408385031215610dd157610dd0610ba2565b5b5f610dde85828601610c41565b9250506020610def85828601610bec565b9150509250929050565b5f5f60408385031215610e0f57610e0e610ba2565b5b5f610e1c85828601610bec565b9250506020610e2d85828601610c41565b9150509250929050565b5f604082019050610e4a5f830185610b7a565b610e576020830184610d93565b9392505050565b7f4e487b71000000000000000000000000000000000000000000000000000000005f52602260045260245ffd5b5f6002820490506001821680610ea257607f821691505b602082108103610eb557610eb4610e5e565b5b50919050565b7f4e6f7420656e6f75676820746f6b656e7320746f206275726e000000000000005f82015250565b5f610eef601983610aeb565b9150610efa82610ebb565b602082019050919050565b5f6020820190508181035f830152610f1c81610ee3565b9050919050565b7f4e487b71000000000000000000000000000000000000000000000000000000005f52601160045260245ffd5b5f610f5a82610b71565b9150610f6583610b71565b9250828203905081811115610f7d57610f7c610f23565b5b92915050565b7f496e73756666696369656e742062616c616e63650000000000000000000000005f82015250565b5f610fb7601483610aeb565b9150610fc282610f83565b602082019050919050565b5f6020820190508181035f830152610fe481610fab565b9050919050565b5f610ff582610b71565b915061100083610b71565b925082820190508082111561101857611017610f23565b5b92915050565b7f4f6e6c79206f776e65722063616e2063616c6c207468697300000000000000005f82015250565b5f611052601883610aeb565b915061105d8261101e565b602082019050919050565b5f6020820190508181035f83015261107f81611046565b9050919050565b7f4d617820737570706c79206578636565646564000000000000000000000000005f82015250565b5f6110ba601383610aeb565b91506110c582611086565b602082019050919050565b5f6020820190508181035f8301526110e7816110ae565b905091905056fea264697066735822122004f8259a0ade5ead6ee113c649e1bbb6fe408301cbc61f05d73de8dfb026ec0364736f6c634300081e0033",
					"opcodes": "PUSH1 0x80 PUSH1 0x40 MSTORE PUSH1 0x40 MLOAD DUP1 PUSH1 0x40 ADD PUSH1 0x40 MSTORE DUP1 PUSH1 0x9 DUP2 MSTORE PUSH1 0x20 ADD PUSH32 0x454E5320546F6B656E0000000000000000000000000000000000000000000000 DUP2 MSTORE POP PUSH0 SWAP1 DUP2 PUSH2 0x47 SWAP2 SWAP1 PUSH2 0x38E JUMP JUMPDEST POP PUSH1 0x40 MLOAD DUP1 PUSH1 0x40 ADD PUSH1 0x40 MSTORE DUP1 PUSH1 0x3 DUP2 MSTORE PUSH1 0x20 ADD PUSH32 0x454E530000000000000000000000000000000000000000000000000000000000 DUP2 MSTORE POP PUSH1 0x1 SWAP1 DUP2 PUSH2 0x8C SWAP2 SWAP1 PUSH2 0x38E JUMP JUMPDEST POP PUSH2 0x2710 PUSH1 0x2 SSTORE PUSH4 0x1406F40 PUSH1 0x3 SSTORE CALLVALUE DUP1 ISZERO PUSH2 0xA6 JUMPI PUSH0 PUSH0 REVERT JUMPDEST POP CALLER PUSH1 0x4 PUSH0 PUSH2 0x100 EXP DUP2 SLOAD DUP2 PUSH20 0xFFFFFFFFFFFFFFFFFFFFFFFFFFFFFFFFFFFFFFFF MUL NOT AND SWAP1 DUP4 PUSH20 0xFFFFFFFFFFFFFFFFFFFFFFFFFFFFFFFFFFFFFFFF AND MUL OR SWAP1 SSTORE POP PUSH1 0x2 SLOAD PUSH1 0x5 PUSH0 PUSH1 0x4 PUSH0 SWAP1 SLOAD SWAP1 PUSH2 0x100 EXP SWAP1 DIV PUSH20 0xFFFFFFFFFFFFFFFFFFFFFFFFFFFFFFFFFFFFFFFF AND PUSH20 0xFFFFFFFFFFFFFFFFFFFFFFFFFFFFFFFFFFFFFFFF AND PUSH20 0xFFFFFFFFFFFFFFFFFFFFFFFFFFFFFFFFFFFFFFFF AND DUP2 MSTORE PUSH1 0x20 ADD SWAP1 DUP2 MSTORE PUSH1 0x20 ADD PUSH0 KECCAK256 DUP2 SWAP1 SSTORE POP PUSH2 0x45D JUMP JUMPDEST PUSH0 DUP2 MLOAD SWAP1 POP SWAP2 SWAP1 POP JUMP JUMPDEST PUSH32 0x4E487B7100000000000000000000000000000000000000000000000000000000 PUSH0 MSTORE PUSH1 0x41 PUSH1 0x4 MSTORE PUSH1 0x24 PUSH0 REVERT JUMPDEST PUSH32 0x4E487B7100000000000000000000000000000000000000000000000000000000 PUSH0 MSTORE PUSH1 0x22 PUSH1 0x4 MSTORE PUSH1 0x24 PUSH0 REVERT JUMPDEST PUSH0 PUSH1 0x2 DUP3 DIV SWAP1 POP PUSH1 0x1 DUP3 AND DUP1 PUSH2 0x1CC JUMPI PUSH1 0x7F DUP3 AND SWAP2 POP JUMPDEST PUSH1 0x20 DUP3 LT DUP2 SUB PUSH2 0x1DF JUMPI PUSH2 0x1DE PUSH2 0x188 JUMP JUMPDEST JUMPDEST POP SWAP2 SWAP1 POP JUMP JUMPDEST PUSH0 DUP2 SWAP1 POP DUP2 PUSH0 MSTORE PUSH1 0x20 PUSH0 KECCAK256 SWAP1 POP SWAP2 SWAP1 POP JUMP JUMPDEST PUSH0 PUSH1 0x20 PUSH1 0x1F DUP4 ADD DIV SWAP1 POP SWAP2 SWAP1 POP JUMP JUMPDEST PUSH0 DUP3 DUP3 SHL SWAP1 POP SWAP3 SWAP2 POP POP JUMP JUMPDEST PUSH0 PUSH1 0x8 DUP4 MUL PUSH2 0x241 PUSH32 0xFFFFFFFFFFFFFFFFFFFFFFFFFFFFFFFFFFFFFFFFFFFFFFFFFFFFFFFFFFFFFFFF DUP3 PUSH2 0x206 JUMP JUMPDEST PUSH2 0x24B DUP7 DUP4 PUSH2 0x206 JUMP JUMPDEST SWAP6 POP DUP1 NOT DUP5 AND SWAP4 POP DUP1 DUP7 AND DUP5 OR SWAP3 POP POP POP SWAP4 SWAP3 POP POP POP JUMP JUMPDEST PUSH0 DUP2 SWAP1 POP SWAP2 SWAP1 POP JUMP JUMPDEST PUSH0 DUP2 SWAP1 POP SWAP2 SWAP1 POP JUMP JUMPDEST PUSH0 PUSH2 0x28F PUSH2 0x28A PUSH2 0x285 DUP5 PUSH2 0x263 JUMP JUMPDEST PUSH2 0x26C JUMP JUMPDEST PUSH2 0x263 JUMP JUMPDEST SWAP1 POP SWAP2 SWAP1 POP JUMP JUMPDEST PUSH0 DUP2 SWAP1 POP SWAP2 SWAP1 POP JUMP JUMPDEST PUSH2 0x2A8 DUP4 PUSH2 0x275 JUMP JUMPDEST PUSH2 0x2BC PUSH2 0x2B4 DUP3 PUSH2 0x296 JUMP JUMPDEST DUP5 DUP5 SLOAD PUSH2 0x212 JUMP JUMPDEST DUP3 SSTORE POP POP POP POP JUMP JUMPDEST PUSH0 PUSH0 SWAP1 POP SWAP1 JUMP JUMPDEST PUSH2 0x2D3 PUSH2 0x2C4 JUMP JUMPDEST PUSH2 0x2DE DUP2 DUP5 DUP5 PUSH2 0x29F JUMP JUMPDEST POP POP POP JUMP JUMPDEST JUMPDEST DUP2 DUP2 LT ISZERO PUSH2 0x301 JUMPI PUSH2 0x2F6 PUSH0 DUP3 PUSH2 0x2CB JUMP JUMPDEST PUSH1 0x1 DUP2 ADD SWAP1 POP PUSH2 0x2E4 JUMP JUMPDEST POP POP JUMP JUMPDEST PUSH1 0x1F DUP3 GT ISZERO PUSH2 0x346 JUMPI PUSH2 0x317 DUP2 PUSH2 0x1E5 JUMP JUMPDEST PUSH2 0x320 DUP5 PUSH2 0x1F7 JUMP JUMPDEST DUP2 ADD PUSH1 0x20 DUP6 LT ISZERO PUSH2 0x32F JUMPI DUP2 SWAP1 POP JUMPDEST PUSH2 0x343 PUSH2 0x33B DUP6 PUSH2 0x1F7 JUMP JUMPDEST DUP4 ADD DUP3 PUSH2 0x2E3 JUMP JUMPDEST POP POP JUMPDEST POP POP POP JUMP JUMPDEST PUSH0 DUP3 DUP3 SHR SWAP1 POP SWAP3 SWAP2 POP POP JUMP JUMPDEST PUSH0 PUSH2 0x366 PUSH0 NOT DUP5 PUSH1 0x8 MUL PUSH2 0x34B JUMP JUMPDEST NOT DUP1 DUP4 AND SWAP2 POP POP SWAP3 SWAP2 POP POP JUMP JUMPDEST PUSH0 PUSH2 0x37E DUP4 DUP4 PUSH2 0x357 JUMP JUMPDEST SWAP2 POP DUP3 PUSH1 0x2 MUL DUP3 OR SWAP1 POP SWAP3 SWAP2 POP POP JUMP JUMPDEST PUSH2 0x397 DUP3 PUSH2 0x151 JUMP JUMPDEST PUSH8 0xFFFFFFFFFFFFFFFF DUP2 GT ISZERO PUSH2 0x3B0 JUMPI PUSH2 0x3AF PUSH2 0x15B JUMP JUMPDEST JUMPDEST PUSH2 0x3BA DUP3 SLOAD PUSH2 0x1B5 JUMP JUMPDEST PUSH2 0x3C5 DUP3 DUP3 DUP6 PUSH2 0x305 JUMP JUMPDEST PUSH0 PUSH1 0x20 SWAP1 POP PUSH1 0x1F DUP4 GT PUSH1 0x1 DUP2 EQ PUSH2 0x3F6 JUMPI PUSH0 DUP5 ISZERO PUSH2 0x3E4 JUMPI DUP3 DUP8 ADD MLOAD SWAP1 POP JUMPDEST PUSH2 0x3EE DUP6 DUP3 PUSH2 0x373 JUMP JUMPDEST DUP7 SSTORE POP PUSH2 0x455 JUMP JUMPDEST PUSH1 0x1F NOT DUP5 AND PUSH2 0x404 DUP7 PUSH2 0x1E5 JUMP JUMPDEST PUSH0 JUMPDEST DUP3 DUP2 LT ISZERO PUSH2 0x42B JUMPI DUP5 DUP10 ADD MLOAD DUP3 SSTORE PUSH1 0x1 DUP3 ADD SWAP2 POP PUSH1 0x20 DUP6 ADD SWAP5 POP PUSH1 0x20 DUP2 ADD SWAP1 POP PUSH2 0x406 JUMP JUMPDEST DUP7 DUP4 LT ISZERO PUSH2 0x448 JUMPI DUP5 DUP10 ADD MLOAD PUSH2 0x444 PUSH1 0x1F DUP10 AND DUP3 PUSH2 0x357 JUMP JUMPDEST DUP4 SSTORE POP JUMPDEST PUSH1 0x1 PUSH1 0x2 DUP9 MUL ADD DUP9 SSTORE POP POP POP JUMPDEST POP POP POP POP POP POP JUMP JUMPDEST PUSH2 0x1124 DUP1 PUSH2 0x46A PUSH0 CODECOPY PUSH0 RETURN INVALID PUSH1 0x80 PUSH1 0x40 MSTORE CALLVALUE DUP1 ISZERO PUSH2 0xF JUMPI PUSH0 PUSH0 REVERT JUMPDEST POP PUSH1 0x4 CALLDATASIZE LT PUSH2 0xCD JUMPI PUSH0 CALLDATALOAD PUSH1 0xE0 SHR DUP1 PUSH4 0x8DA5CB5B GT PUSH2 0x8A JUMPI DUP1 PUSH4 0xC4E41B22 GT PUSH2 0x64 JUMPI DUP1 PUSH4 0xC4E41B22 EQ PUSH2 0x1FF JUMPI DUP1 PUSH4 0xCC38B477 EQ PUSH2 0x21D JUMPI DUP1 PUSH4 0xD1965080 EQ PUSH2 0x24E JUMPI DUP1 PUSH4 0xD5ABEB01 EQ PUSH2 0x258 JUMPI PUSH2 0xCD JUMP JUMPDEST DUP1 PUSH4 0x8DA5CB5B EQ PUSH2 0x1A7 JUMPI DUP1 PUSH4 0x95D89B41 EQ PUSH2 0x1C5 JUMPI DUP1 PUSH4 0xB7760C8F EQ PUSH2 0x1E3 JUMPI PUSH2 0xCD JUMP JUMPDEST DUP1 PUSH4 0x6FDDE03 EQ PUSH2 0xD1 JUMPI DUP1 PUSH4 0x18160DDD EQ PUSH2 0xEF JUMPI DUP1 PUSH4 0x27E235E3 EQ PUSH2 0x10D JUMPI DUP1 PUSH4 0x42966C68 EQ PUSH2 0x13D JUMPI DUP1 PUSH4 0x4C0F38C2 EQ PUSH2 0x159 JUMPI DUP1 PUSH4 0x7DA2BA7C EQ PUSH2 0x177 JUMPI JUMPDEST PUSH0 PUSH0 REVERT JUMPDEST PUSH2 0xD9 PUSH2 0x276 JUMP JUMPDEST PUSH1 0x40 MLOAD PUSH2 0xE6 SWAP2 SWAP1 PUSH2 0xB51 JUMP JUMPDEST PUSH1 0x40 MLOAD DUP1 SWAP2 SUB SWAP1 RETURN JUMPDEST PUSH2 0xF7 PUSH2 0x301 JUMP JUMPDEST PUSH1 0x40 MLOAD PUSH2 0x104 SWAP2 SWAP1 PUSH2 0xB89 JUMP JUMPDEST PUSH1 0x40 MLOAD DUP1 SWAP2 SUB SWAP1 RETURN JUMPDEST PUSH2 0x127 PUSH1 0x4 DUP1 CALLDATASIZE SUB DUP2 ADD SWAP1 PUSH2 0x122 SWAP2 SWAP1 PUSH2 0xC00 JUMP JUMPDEST PUSH2 0x307 JUMP JUMPDEST PUSH1 0x40 MLOAD PUSH2 0x134 SWAP2 SWAP1 PUSH2 0xB89 JUMP JUMPDEST PUSH1 0x40 MLOAD DUP1 SWAP2 SUB SWAP1 RETURN JUMPDEST PUSH2 0x157 PUSH1 0x4 DUP1 CALLDATASIZE SUB DUP2 ADD SWAP1 PUSH2 0x152 SWAP2 SWAP1 PUSH2 0xC55 JUMP JUMPDEST PUSH2 0x31C JUMP JUMPDEST STOP JUMPDEST PUSH2 0x161 PUSH2 0x4A8 JUMP JUMPDEST PUSH1 0x40 MLOAD PUSH2 0x16E SWAP2 SWAP1 PUSH2 0xB89 JUMP JUMPDEST PUSH1 0x40 MLOAD DUP1 SWAP2 SUB SWAP1 RETURN JUMPDEST PUSH2 0x191 PUSH1 0x4 DUP1 CALLDATASIZE SUB DUP2 ADD SWAP1 PUSH2 0x18C SWAP2 SWAP1 PUSH2 0xC00 JUMP JUMPDEST PUSH2 0x4B1 JUMP JUMPDEST PUSH1 0x40 MLOAD PUSH2 0x19E SWAP2 SWAP1 PUSH2 0xD73 JUMP JUMPDEST PUSH1 0x40 MLOAD DUP1 SWAP2 SUB SWAP1 RETURN JUMPDEST PUSH2 0x1AF PUSH2 0x5A8 JUMP JUMPDEST PUSH1 0x40 MLOAD PUSH2 0x1BC SWAP2 SWAP1 PUSH2 0xDA2 JUMP JUMPDEST PUSH1 0x40 MLOAD DUP1 SWAP2 SUB SWAP1 RETURN JUMPDEST PUSH2 0x1CD PUSH2 0x5CD JUMP JUMPDEST PUSH1 0x40 MLOAD PUSH2 0x1DA SWAP2 SWAP1 PUSH2 0xB51 JUMP JUMPDEST PUSH1 0x40 MLOAD DUP1 SWAP2 SUB SWAP1 RETURN JUMPDEST PUSH2 0x1FD PUSH1 0x4 DUP1 CALLDATASIZE SUB DUP2 ADD SWAP1 PUSH2 0x1F8 SWAP2 SWAP1 PUSH2 0xDBB JUMP JUMPDEST PUSH2 0x659 JUMP JUMPDEST STOP JUMPDEST PUSH2 0x207 PUSH2 0x8CB JUMP JUMPDEST PUSH1 0x40 MLOAD PUSH2 0x214 SWAP2 SWAP1 PUSH2 0xB89 JUMP JUMPDEST PUSH1 0x40 MLOAD DUP1 SWAP2 SUB SWAP1 RETURN JUMPDEST PUSH2 0x237 PUSH1 0x4 DUP1 CALLDATASIZE SUB DUP2 ADD SWAP1 PUSH2 0x232 SWAP2 SWAP1 PUSH2 0xDF9 JUMP JUMPDEST PUSH2 0x8D4 JUMP JUMPDEST PUSH1 0x40 MLOAD PUSH2 0x245 SWAP3 SWAP2 SWAP1 PUSH2 0xE37 JUMP JUMPDEST PUSH1 0x40 MLOAD DUP1 SWAP2 SUB SWAP1 RETURN JUMPDEST PUSH2 0x256 PUSH2 0x92D JUMP JUMPDEST STOP JUMPDEST PUSH2 0x260 PUSH2 0xADB JUMP JUMPDEST PUSH1 0x40 MLOAD PUSH2 0x26D SWAP2 SWAP1 PUSH2 0xB89 JUMP JUMPDEST PUSH1 0x40 MLOAD DUP1 SWAP2 SUB SWAP1 RETURN JUMPDEST PUSH0 DUP1 SLOAD PUSH2 0x282 SWAP1 PUSH2 0xE8B JUMP JUMPDEST DUP1 PUSH1 0x1F ADD PUSH1 0x20 DUP1 SWAP2 DIV MUL PUSH1 0x20 ADD PUSH1 0x40 MLOAD SWAP1 DUP2 ADD PUSH1 0x40 MSTORE DUP1 SWAP3 SWAP2 SWAP1 DUP2 DUP2 MSTORE PUSH1 0x20 ADD DUP3 DUP1 SLOAD PUSH2 0x2AE SWAP1 PUSH2 0xE8B JUMP JUMPDEST DUP1 ISZERO PUSH2 0x2F9 JUMPI DUP1 PUSH1 0x1F LT PUSH2 0x2D0 JUMPI PUSH2 0x100 DUP1 DUP4 SLOAD DIV MUL DUP4 MSTORE SWAP2 PUSH1 0x20 ADD SWAP2 PUSH2 0x2F9 JUMP JUMPDEST DUP3 ADD SWAP2 SWAP1 PUSH0 MSTORE PUSH1 0x20 PUSH0 KECCAK256 SWAP1 JUMPDEST DUP2 SLOAD DUP2 MSTORE SWAP1 PUSH1 0x1 ADD SWAP1 PUSH1 0x20 ADD DUP1 DUP4 GT PUSH2 0x2DC JUMPI DUP3 SWAP1 SUB PUSH1 0x1F AND DUP3 ADD SWAP2 JUMPDEST POP POP POP POP POP DUP2 JUMP JUMPDEST PUSH1 0x2 SLOAD DUP2 JUMP JUMPDEST PUSH1 0x5 PUSH1 0x20 MSTORE DUP1 PUSH0 MSTORE PUSH1 0x40 PUSH0 KECCAK256 PUSH0 SWAP2 POP SWAP1 POP SLOAD DUP2 JUMP JUMPDEST DUP1 PUSH1 0x5 PUSH0 CALLER PUSH20 0xFFFFFFFFFFFFFFFFFFFFFFFFFFFFFFFFFFFFFFFF AND PUSH20 0xFFFFFFFFFFFFFFFFFFFFFFFFFFFFFFFFFFFFFFFF AND DUP2 MSTORE PUSH1 0x20 ADD SWAP1 DUP2 MSTORE PUSH1 0x20 ADD PUSH0 KECCAK256 SLOAD LT ISZERO PUSH2 0x39C JUMPI PUSH1 0x40 MLOAD PUSH32 0x8C379A000000000000000000000000000000000000000000000000000000000 DUP2 MSTORE PUSH1 0x4 ADD PUSH2 0x393 SWAP1 PUSH2 0xF05 JUMP JUMPDEST PUSH1 0x40 MLOAD DUP1 SWAP2 SUB SWAP1 REVERT JUMPDEST DUP1 PUSH1 0x5 PUSH0 CALLER PUSH20 0xFFFFFFFFFFFFFFFFFFFFFFFFFFFFFFFFFFFFFFFF AND PUSH20 0xFFFFFFFFFFFFFFFFFFFFFFFFFFFFFFFFFFFFFFFF AND DUP2 MSTORE PUSH1 0x20 ADD SWAP1 DUP2 MSTORE PUSH1 0x20 ADD PUSH0 KECCAK256 PUSH0 DUP3 DUP3 SLOAD PUSH2 0x3E8 SWAP2 SWAP1 PUSH2 0xF50 JUMP JUMPDEST SWAP3 POP POP DUP2 SWAP1 SSTORE POP DUP1 PUSH1 0x2 PUSH0 DUP3 DUP3 SLOAD PUSH2 0x400 SWAP2 SWAP1 PUSH2 0xF50 JUMP JUMPDEST SWAP3 POP POP DUP2 SWAP1 SSTORE POP PUSH32 0xC8B17F75F53401F272E9EE7FA431E81BA33779363238896180425A422420C8F7 PUSH1 0x2 SLOAD PUSH1 0x40 MLOAD PUSH2 0x438 SWAP2 SWAP1 PUSH2 0xB89 JUMP JUMPDEST PUSH1 0x40 MLOAD DUP1 SWAP2 SUB SWAP1 LOG1 PUSH0 PUSH20 0xFFFFFFFFFFFFFFFFFFFFFFFFFFFFFFFFFFFFFFFF AND CALLER PUSH20 0xFFFFFFFFFFFFFFFFFFFFFFFFFFFFFFFFFFFFFFFF AND PUSH32 0xDDF252AD1BE2C89B69C2B068FC378DAA952BA7F163C4A11628F55A4DF523B3EF DUP4 PUSH1 0x40 MLOAD PUSH2 0x49D SWAP2 SWAP1 PUSH2 0xB89 JUMP JUMPDEST PUSH1 0x40 MLOAD DUP1 SWAP2 SUB SWAP1 LOG3 POP JUMP JUMPDEST PUSH0 PUSH1 0x3 SLOAD SWAP1 POP SWAP1 JUMP JUMPDEST PUSH1 0x60 PUSH1 0x6 PUSH0 DUP4 PUSH20 0xFFFFFFFFFFFFFFFFFFFFFFFFFFFFFFFFFFFFFFFF AND PUSH20 0xFFFFFFFFFFFFFFFFFFFFFFFFFFFFFFFFFFFFFFFF AND DUP2 MSTORE PUSH1 0x20 ADD SWAP1 DUP2 MSTORE PUSH1 0x20 ADD PUSH0 KECCAK256 DUP1 SLOAD DUP1 PUSH1 0x20 MUL PUSH1 0x20 ADD PUSH1 0x40 MLOAD SWAP1 DUP2 ADD PUSH1 0x40 MSTORE DUP1 SWAP3 SWAP2 SWAP1 DUP2 DUP2 MSTORE PUSH1 0x20 ADD PUSH0 SWAP1 JUMPDEST DUP3 DUP3 LT ISZERO PUSH2 0x59D JUMPI DUP4 DUP3 SWAP1 PUSH0 MSTORE PUSH1 0x20 PUSH0 KECCAK256 SWAP1 PUSH1 0x2 MUL ADD PUSH1 0x40 MLOAD DUP1 PUSH1 0x40 ADD PUSH1 0x40 MSTORE SWAP1 DUP2 PUSH0 DUP3 ADD SLOAD DUP2 MSTORE PUSH1 0x20 ADD PUSH1 0x1 DUP3 ADD PUSH0 SWAP1 SLOAD SWAP1 PUSH2 0x100 EXP SWAP1 DIV PUSH20 0xFFFFFFFFFFFFFFFFFFFFFFFFFFFFFFFFFFFFFFFF AND PUSH20 0xFFFFFFFFFFFFFFFFFFFFFFFFFFFFFFFFFFFFFFFF AND PUSH20 0xFFFFFFFFFFFFFFFFFFFFFFFFFFFFFFFFFFFFFFFF AND DUP2 MSTORE POP POP DUP2 MSTORE PUSH1 0x20 ADD SWAP1 PUSH1 0x1 ADD SWAP1 PUSH2 0x50F JUMP JUMPDEST POP POP POP POP SWAP1 POP SWAP2 SWAP1 POP JUMP JUMPDEST PUSH1 0x4 PUSH0 SWAP1 SLOAD SWAP1 PUSH2 0x100 EXP SWAP1 DIV PUSH20 0xFFFFFFFFFFFFFFFFFFFFFFFFFFFFFFFFFFFFFFFF AND DUP2 JUMP JUMPDEST PUSH1 0x1 DUP1 SLOAD PUSH2 0x5DA SWAP1 PUSH2 0xE8B JUMP JUMPDEST DUP1 PUSH1 0x1F ADD PUSH1 0x20 DUP1 SWAP2 DIV MUL PUSH1 0x20 ADD PUSH1 0x40 MLOAD SWAP1 DUP2 ADD PUSH1 0x40 MSTORE DUP1 SWAP3 SWAP2 SWAP1 DUP2 DUP2 MSTORE PUSH1 0x20 ADD DUP3 DUP1 SLOAD PUSH2 0x606 SWAP1 PUSH2 0xE8B JUMP JUMPDEST DUP1 ISZERO PUSH2 0x651 JUMPI DUP1 PUSH1 0x1F LT PUSH2 0x628 JUMPI PUSH2 0x100 DUP1 DUP4 SLOAD DIV MUL DUP4 MSTORE SWAP2 PUSH1 0x20 ADD SWAP2 PUSH2 0x651 JUMP JUMPDEST DUP3 ADD SWAP2 SWAP1 PUSH0 MSTORE PUSH1 0x20 PUSH0 KECCAK256 SWAP1 JUMPDEST DUP2 SLOAD DUP2 MSTORE SWAP1 PUSH1 0x1 ADD SWAP1 PUSH1 0x20 ADD DUP1 DUP4 GT PUSH2 0x634 JUMPI DUP3 SWAP1 SUB PUSH1 0x1F AND DUP3 ADD SWAP2 JUMPDEST POP POP POP POP POP DUP2 JUMP JUMPDEST DUP2 PUSH1 0x5 PUSH0 CALLER PUSH20 0xFFFFFFFFFFFFFFFFFFFFFFFFFFFFFFFFFFFFFFFF AND PUSH20 0xFFFFFFFFFFFFFFFFFFFFFFFFFFFFFFFFFFFFFFFF AND DUP2 MSTORE PUSH1 0x20 ADD SWAP1 DUP2 MSTORE PUSH1 0x20 ADD PUSH0 KECCAK256 SLOAD LT ISZERO PUSH2 0x6D9 JUMPI PUSH1 0x40 MLOAD PUSH32 0x8C379A000000000000000000000000000000000000000000000000000000000 DUP2 MSTORE PUSH1 0x4 ADD PUSH2 0x6D0 SWAP1 PUSH2 0xFCD JUMP JUMPDEST PUSH1 0x40 MLOAD DUP1 SWAP2 SUB SWAP1 REVERT JUMPDEST DUP2 PUSH1 0x5 PUSH0 CALLER PUSH20 0xFFFFFFFFFFFFFFFFFFFFFFFFFFFFFFFFFFFFFFFF AND PUSH20 0xFFFFFFFFFFFFFFFFFFFFFFFFFFFFFFFFFFFFFFFF AND DUP2 MSTORE PUSH1 0x20 ADD SWAP1 DUP2 MSTORE PUSH1 0x20 ADD PUSH0 KECCAK256 PUSH0 DUP3 DUP3 SLOAD PUSH2 0x725 SWAP2 SWAP1 PUSH2 0xF50 JUMP JUMPDEST SWAP3 POP POP DUP2 SWAP1 SSTORE POP DUP2 PUSH1 0x5 PUSH0 DUP4 PUSH20 0xFFFFFFFFFFFFFFFFFFFFFFFFFFFFFFFFFFFFFFFF AND PUSH20 0xFFFFFFFFFFFFFFFFFFFFFFFFFFFFFFFFFFFFFFFF AND DUP2 MSTORE PUSH1 0x20 ADD SWAP1 DUP2 MSTORE PUSH1 0x20 ADD PUSH0 KECCAK256 PUSH0 DUP3 DUP3 SLOAD PUSH2 0x778 SWAP2 SWAP1 PUSH2 0xFEB JUMP JUMPDEST SWAP3 POP POP DUP2 SWAP1 SSTORE POP PUSH0 PUSH1 0x40 MLOAD DUP1 PUSH1 0x40 ADD PUSH1 0x40 MSTORE DUP1 DUP5 DUP2 MSTORE PUSH1 0x20 ADD DUP4 PUSH20 0xFFFFFFFFFFFFFFFFFFFFFFFFFFFFFFFFFFFFFFFF AND DUP2 MSTORE POP SWAP1 POP PUSH1 0x6 PUSH0 CALLER PUSH20 0xFFFFFFFFFFFFFFFFFFFFFFFFFFFFFFFFFFFFFFFF AND PUSH20 0xFFFFFFFFFFFFFFFFFFFFFFFFFFFFFFFFFFFFFFFF AND DUP2 MSTORE PUSH1 0x20 ADD SWAP1 DUP2 MSTORE PUSH1 0x20 ADD PUSH0 KECCAK256 DUP2 SWAP1 DUP1 PUSH1 0x1 DUP2 SLOAD ADD DUP1 DUP3 SSTORE DUP1 SWAP2 POP POP PUSH1 0x1 SWAP1 SUB SWAP1 PUSH0 MSTORE PUSH1 0x20 PUSH0 KECCAK256 SWAP1 PUSH1 0x2 MUL ADD PUSH0 SWAP1 SWAP2 SWAP1 SWAP2 SWAP1 SWAP2 POP PUSH0 DUP3 ADD MLOAD DUP2 PUSH0 ADD SSTORE PUSH1 0x20 DUP3 ADD MLOAD DUP2 PUSH1 0x1 ADD PUSH0 PUSH2 0x100 EXP DUP2 SLOAD DUP2 PUSH20 0xFFFFFFFFFFFFFFFFFFFFFFFFFFFFFFFFFFFFFFFF MUL NOT AND SWAP1 DUP4 PUSH20 0xFFFFFFFFFFFFFFFFFFFFFFFFFFFFFFFFFFFFFFFF AND MUL OR SWAP1 SSTORE POP POP POP DUP2 PUSH20 0xFFFFFFFFFFFFFFFFFFFFFFFFFFFFFFFFFFFFFFFF AND CALLER PUSH20 0xFFFFFFFFFFFFFFFFFFFFFFFFFFFFFFFFFFFFFFFF AND PUSH32 0xDDF252AD1BE2C89B69C2B068FC378DAA952BA7F163C4A11628F55A4DF523B3EF DUP6 PUSH1 0x40 MLOAD PUSH2 0x8BE SWAP2 SWAP1 PUSH2 0xB89 JUMP JUMPDEST PUSH1 0x40 MLOAD DUP1 SWAP2 SUB SWAP1 LOG3 POP POP POP JUMP JUMPDEST PUSH0 PUSH1 0x2 SLOAD SWAP1 POP SWAP1 JUMP JUMPDEST PUSH1 0x6 PUSH1 0x20 MSTORE DUP2 PUSH0 MSTORE PUSH1 0x40 PUSH0 KECCAK256 DUP2 DUP2 SLOAD DUP2 LT PUSH2 0x8ED JUMPI PUSH0 DUP1 REVERT JUMPDEST SWAP1 PUSH0 MSTORE PUSH1 0x20 PUSH0 KECCAK256 SWAP1 PUSH1 0x2 MUL ADD PUSH0 SWAP2 POP SWAP2 POP POP DUP1 PUSH0 ADD SLOAD SWAP1 DUP1 PUSH1 0x1 ADD PUSH0 SWAP1 SLOAD SWAP1 PUSH2 0x100 EXP SWAP1 DIV PUSH20 0xFFFFFFFFFFFFFFFFFFFFFFFFFFFFFFFFFFFFFFFF AND SWAP1 POP DUP3 JUMP JUMPDEST PUSH1 0x4 PUSH0 SWAP1 SLOAD SWAP1 PUSH2 0x100 EXP SWAP1 DIV PUSH20 0xFFFFFFFFFFFFFFFFFFFFFFFFFFFFFFFFFFFFFFFF AND PUSH20 0xFFFFFFFFFFFFFFFFFFFFFFFFFFFFFFFFFFFFFFFF AND CALLER PUSH20 0xFFFFFFFFFFFFFFFFFFFFFFFFFFFFFFFFFFFFFFFF AND EQ PUSH2 0x9BC JUMPI PUSH1 0x40 MLOAD PUSH32 0x8C379A000000000000000000000000000000000000000000000000000000000 DUP2 MSTORE PUSH1 0x4 ADD PUSH2 0x9B3 SWAP1 PUSH2 0x1068 JUMP JUMPDEST PUSH1 0x40 MLOAD DUP1 SWAP2 SUB SWAP1 REVERT JUMPDEST PUSH1 0x3 SLOAD PUSH2 0x3E8 PUSH1 0x2 SLOAD PUSH2 0x9CF SWAP2 SWAP1 PUSH2 0xFEB JUMP JUMPDEST GT ISZERO PUSH2 0xA10 JUMPI PUSH1 0x40 MLOAD PUSH32 0x8C379A000000000000000000000000000000000000000000000000000000000 DUP2 MSTORE PUSH1 0x4 ADD PUSH2 0xA07 SWAP1 PUSH2 0x10D0 JUMP JUMPDEST PUSH1 0x40 MLOAD DUP1 SWAP2 SUB SWAP1 REVERT JUMPDEST PUSH2 0x3E8 PUSH1 0x2 PUSH0 DUP3 DUP3 SLOAD PUSH2 0xA23 SWAP2 SWAP1 PUSH2 0xFEB JUMP JUMPDEST SWAP3 POP POP DUP2 SWAP1 SSTORE POP PUSH2 0x3E8 PUSH1 0x5 PUSH0 PUSH1 0x4 PUSH0 SWAP1 SLOAD SWAP1 PUSH2 0x100 EXP SWAP1 DIV PUSH20 0xFFFFFFFFFFFFFFFFFFFFFFFFFFFFFFFFFFFFFFFF AND PUSH20 0xFFFFFFFFFFFFFFFFFFFFFFFFFFFFFFFFFFFFFFFF AND PUSH20 0xFFFFFFFFFFFFFFFFFFFFFFFFFFFFFFFFFFFFFFFF AND DUP2 MSTORE PUSH1 0x20 ADD SWAP1 DUP2 MSTORE PUSH1 0x20 ADD PUSH0 KECCAK256 PUSH0 DUP3 DUP3 SLOAD PUSH2 0xA99 SWAP2 SWAP1 PUSH2 0xFEB JUMP JUMPDEST SWAP3 POP POP DUP2 SWAP1 SSTORE POP PUSH32 0xC8B17F75F53401F272E9EE7FA431E81BA33779363238896180425A422420C8F7 PUSH1 0x2 SLOAD PUSH1 0x40 MLOAD PUSH2 0xAD1 SWAP2 SWAP1 PUSH2 0xB89 JUMP JUMPDEST PUSH1 0x40 MLOAD DUP1 SWAP2 SUB SWAP1 LOG1 JUMP JUMPDEST PUSH1 0x3 SLOAD DUP2 JUMP JUMPDEST PUSH0 DUP2 MLOAD SWAP1 POP SWAP2 SWAP1 POP JUMP JUMPDEST PUSH0 DUP3 DUP3 MSTORE PUSH1 0x20 DUP3 ADD SWAP1 POP SWAP3 SWAP2 POP POP JUMP JUMPDEST DUP3 DUP2 DUP4 MCOPY PUSH0 DUP4 DUP4 ADD MSTORE POP POP POP JUMP JUMPDEST PUSH0 PUSH1 0x1F NOT PUSH1 0x1F DUP4 ADD AND SWAP1 POP SWAP2 SWAP1 POP JUMP JUMPDEST PUSH0 PUSH2 0xB23 DUP3 PUSH2 0xAE1 JUMP JUMPDEST PUSH2 0xB2D DUP2 DUP6 PUSH2 0xAEB JUMP JUMPDEST SWAP4 POP PUSH2 0xB3D DUP2 DUP6 PUSH1 0x20 DUP7 ADD PUSH2 0xAFB JUMP JUMPDEST PUSH2 0xB46 DUP2 PUSH2 0xB09 JUMP JUMPDEST DUP5 ADD SWAP2 POP POP SWAP3 SWAP2 POP POP JUMP JUMPDEST PUSH0 PUSH1 0x20 DUP3 ADD SWAP1 POP DUP2 DUP2 SUB PUSH0 DUP4 ADD MSTORE PUSH2 0xB69 DUP2 DUP5 PUSH2 0xB19 JUMP JUMPDEST SWAP1 POP SWAP3 SWAP2 POP POP JUMP JUMPDEST PUSH0 DUP2 SWAP1 POP SWAP2 SWAP1 POP JUMP JUMPDEST PUSH2 0xB83 DUP2 PUSH2 0xB71 JUMP JUMPDEST DUP3 MSTORE POP POP JUMP JUMPDEST PUSH0 PUSH1 0x20 DUP3 ADD SWAP1 POP PUSH2 0xB9C PUSH0 DUP4 ADD DUP5 PUSH2 0xB7A JUMP JUMPDEST SWAP3 SWAP2 POP POP JUMP JUMPDEST PUSH0 PUSH0 REVERT JUMPDEST PUSH0 PUSH20 0xFFFFFFFFFFFFFFFFFFFFFFFFFFFFFFFFFFFFFFFF DUP3 AND SWAP1 POP SWAP2 SWAP1 POP JUMP JUMPDEST PUSH0 PUSH2 0xBCF DUP3 PUSH2 0xBA6 JUMP JUMPDEST SWAP1 POP SWAP2 SWAP1 POP JUMP JUMPDEST PUSH2 0xBDF DUP2 PUSH2 0xBC5 JUMP JUMPDEST DUP2 EQ PUSH2 0xBE9 JUMPI PUSH0 PUSH0 REVERT JUMPDEST POP JUMP JUMPDEST PUSH0 DUP2 CALLDATALOAD SWAP1 POP PUSH2 0xBFA DUP2 PUSH2 0xBD6 JUMP JUMPDEST SWAP3 SWAP2 POP POP JUMP JUMPDEST PUSH0 PUSH1 0x20 DUP3 DUP5 SUB SLT ISZERO PUSH2 0xC15 JUMPI PUSH2 0xC14 PUSH2 0xBA2 JUMP JUMPDEST JUMPDEST PUSH0 PUSH2 0xC22 DUP5 DUP3 DUP6 ADD PUSH2 0xBEC JUMP JUMPDEST SWAP2 POP POP SWAP3 SWAP2 POP POP JUMP JUMPDEST PUSH2 0xC34 DUP2 PUSH2 0xB71 JUMP JUMPDEST DUP2 EQ PUSH2 0xC3E JUMPI PUSH0 PUSH0 REVERT JUMPDEST POP JUMP JUMPDEST PUSH0 DUP2 CALLDATALOAD SWAP1 POP PUSH2 0xC4F DUP2 PUSH2 0xC2B JUMP JUMPDEST SWAP3 SWAP2 POP POP JUMP JUMPDEST PUSH0 PUSH1 0x20 DUP3 DUP5 SUB SLT ISZERO PUSH2 0xC6A JUMPI PUSH2 0xC69 PUSH2 0xBA2 JUMP JUMPDEST JUMPDEST PUSH0 PUSH2 0xC77 DUP5 DUP3 DUP6 ADD PUSH2 0xC41 JUMP JUMPDEST SWAP2 POP POP SWAP3 SWAP2 POP POP JUMP JUMPDEST PUSH0 DUP2 MLOAD SWAP1 POP SWAP2 SWAP1 POP JUMP JUMPDEST PUSH0 DUP3 DUP3 MSTORE PUSH1 0x20 DUP3 ADD SWAP1 POP SWAP3 SWAP2 POP POP JUMP JUMPDEST PUSH0 DUP2 SWAP1 POP PUSH1 0x20 DUP3 ADD SWAP1 POP SWAP2 SWAP1 POP JUMP JUMPDEST PUSH2 0xCB2 DUP2 PUSH2 0xB71 JUMP JUMPDEST DUP3 MSTORE POP POP JUMP JUMPDEST PUSH2 0xCC1 DUP2 PUSH2 0xBC5 JUMP JUMPDEST DUP3 MSTORE POP POP JUMP JUMPDEST PUSH1 0x40 DUP3 ADD PUSH0 DUP3 ADD MLOAD PUSH2 0xCDB PUSH0 DUP6 ADD DUP3 PUSH2 0xCA9 JUMP JUMPDEST POP PUSH1 0x20 DUP3 ADD MLOAD PUSH2 0xCEE PUSH1 0x20 DUP6 ADD DUP3 PUSH2 0xCB8 JUMP JUMPDEST POP POP POP POP JUMP JUMPDEST PUSH0 PUSH2 0xCFF DUP4 DUP4 PUSH2 0xCC7 JUMP JUMPDEST PUSH1 0x40 DUP4 ADD SWAP1 POP SWAP3 SWAP2 POP POP JUMP JUMPDEST PUSH0 PUSH1 0x20 DUP3 ADD SWAP1 POP SWAP2 SWAP1 POP JUMP JUMPDEST PUSH0 PUSH2 0xD21 DUP3 PUSH2 0xC80 JUMP JUMPDEST PUSH2 0xD2B DUP2 DUP6 PUSH2 0xC8A JUMP JUMPDEST SWAP4 POP PUSH2 0xD36 DUP4 PUSH2 0xC9A JUMP JUMPDEST DUP1 PUSH0 JUMPDEST DUP4 DUP2 LT ISZERO PUSH2 0xD66 JUMPI DUP2 MLOAD PUSH2 0xD4D DUP9 DUP3 PUSH2 0xCF4 JUMP JUMPDEST SWAP8 POP PUSH2 0xD58 DUP4 PUSH2 0xD0B JUMP JUMPDEST SWAP3 POP POP PUSH1 0x1 DUP2 ADD SWAP1 POP PUSH2 0xD39 JUMP JUMPDEST POP DUP6 SWAP4 POP POP POP POP SWAP3 SWAP2 POP POP JUMP JUMPDEST PUSH0 PUSH1 0x20 DUP3 ADD SWAP1 POP DUP2 DUP2 SUB PUSH0 DUP4 ADD MSTORE PUSH2 0xD8B DUP2 DUP5 PUSH2 0xD17 JUMP JUMPDEST SWAP1 POP SWAP3 SWAP2 POP POP JUMP JUMPDEST PUSH2 0xD9C DUP2 PUSH2 0xBC5 JUMP JUMPDEST DUP3 MSTORE POP POP JUMP JUMPDEST PUSH0 PUSH1 0x20 DUP3 ADD SWAP1 POP PUSH2 0xDB5 PUSH0 DUP4 ADD DUP5 PUSH2 0xD93 JUMP JUMPDEST SWAP3 SWAP2 POP POP JUMP JUMPDEST PUSH0 PUSH0 PUSH1 0x40 DUP4 DUP6 SUB SLT ISZERO PUSH2 0xDD1 JUMPI PUSH2 0xDD0 PUSH2 0xBA2 JUMP JUMPDEST JUMPDEST PUSH0 PUSH2 0xDDE DUP6 DUP3 DUP7 ADD PUSH2 0xC41 JUMP JUMPDEST SWAP3 POP POP PUSH1 0x20 PUSH2 0xDEF DUP6 DUP3 DUP7 ADD PUSH2 0xBEC JUMP JUMPDEST SWAP2 POP POP SWAP3 POP SWAP3 SWAP1 POP JUMP JUMPDEST PUSH0 PUSH0 PUSH1 0x40 DUP4 DUP6 SUB SLT ISZERO PUSH2 0xE0F JUMPI PUSH2 0xE0E PUSH2 0xBA2 JUMP JUMPDEST JUMPDEST PUSH0 PUSH2 0xE1C DUP6 DUP3 DUP7 ADD PUSH2 0xBEC JUMP JUMPDEST SWAP3 POP POP PUSH1 0x20 PUSH2 0xE2D DUP6 DUP3 DUP7 ADD PUSH2 0xC41 JUMP JUMPDEST SWAP2 POP POP SWAP3 POP SWAP3 SWAP1 POP JUMP JUMPDEST PUSH0 PUSH1 0x40 DUP3 ADD SWAP1 POP PUSH2 0xE4A PUSH0 DUP4 ADD DUP6 PUSH2 0xB7A JUMP JUMPDEST PUSH2 0xE57 PUSH1 0x20 DUP4 ADD DUP5 PUSH2 0xD93 JUMP JUMPDEST SWAP4 SWAP3 POP POP POP JUMP JUMPDEST PUSH32 0x4E487B7100000000000000000000000000000000000000000000000000000000 PUSH0 MSTORE PUSH1 0x22 PUSH1 0x4 MSTORE PUSH1 0x24 PUSH0 REVERT JUMPDEST PUSH0 PUSH1 0x2 DUP3 DIV SWAP1 POP PUSH1 0x1 DUP3 AND DUP1 PUSH2 0xEA2 JUMPI PUSH1 0x7F DUP3 AND SWAP2 POP JUMPDEST PUSH1 0x20 DUP3 LT DUP2 SUB PUSH2 0xEB5 JUMPI PUSH2 0xEB4 PUSH2 0xE5E JUMP JUMPDEST JUMPDEST POP SWAP2 SWAP1 POP JUMP JUMPDEST PUSH32 0x4E6F7420656E6F75676820746F6B656E7320746F206275726E00000000000000 PUSH0 DUP3 ADD MSTORE POP JUMP JUMPDEST PUSH0 PUSH2 0xEEF PUSH1 0x19 DUP4 PUSH2 0xAEB JUMP JUMPDEST SWAP2 POP PUSH2 0xEFA DUP3 PUSH2 0xEBB JUMP JUMPDEST PUSH1 0x20 DUP3 ADD SWAP1 POP SWAP2 SWAP1 POP JUMP JUMPDEST PUSH0 PUSH1 0x20 DUP3 ADD SWAP1 POP DUP2 DUP2 SUB PUSH0 DUP4 ADD MSTORE PUSH2 0xF1C DUP2 PUSH2 0xEE3 JUMP JUMPDEST SWAP1 POP SWAP2 SWAP1 POP JUMP JUMPDEST PUSH32 0x4E487B7100000000000000000000000000000000000000000000000000000000 PUSH0 MSTORE PUSH1 0x11 PUSH1 0x4 MSTORE PUSH1 0x24 PUSH0 REVERT JUMPDEST PUSH0 PUSH2 0xF5A DUP3 PUSH2 0xB71 JUMP JUMPDEST SWAP2 POP PUSH2 0xF65 DUP4 PUSH2 0xB71 JUMP JUMPDEST SWAP3 POP DUP3 DUP3 SUB SWAP1 POP DUP2 DUP2 GT ISZERO PUSH2 0xF7D JUMPI PUSH2 0xF7C PUSH2 0xF23 JUMP JUMPDEST JUMPDEST SWAP3 SWAP2 POP POP JUMP JUMPDEST PUSH32 0x496E73756666696369656E742062616C616E6365000000000000000000000000 PUSH0 DUP3 ADD MSTORE POP JUMP JUMPDEST PUSH0 PUSH2 0xFB7 PUSH1 0x14 DUP4 PUSH2 0xAEB JUMP JUMPDEST SWAP2 POP PUSH2 0xFC2 DUP3 PUSH2 0xF83 JUMP JUMPDEST PUSH1 0x20 DUP3 ADD SWAP1 POP SWAP2 SWAP1 POP JUMP JUMPDEST PUSH0 PUSH1 0x20 DUP3 ADD SWAP1 POP DUP2 DUP2 SUB PUSH0 DUP4 ADD MSTORE PUSH2 0xFE4 DUP2 PUSH2 0xFAB JUMP JUMPDEST SWAP1 POP SWAP2 SWAP1 POP JUMP JUMPDEST PUSH0 PUSH2 0xFF5 DUP3 PUSH2 0xB71 JUMP JUMPDEST SWAP2 POP PUSH2 0x1000 DUP4 PUSH2 0xB71 JUMP JUMPDEST SWAP3 POP DUP3 DUP3 ADD SWAP1 POP DUP1 DUP3 GT ISZERO PUSH2 0x1018 JUMPI PUSH2 0x1017 PUSH2 0xF23 JUMP JUMPDEST JUMPDEST SWAP3 SWAP2 POP POP JUMP JUMPDEST PUSH32 0x4F6E6C79206F776E65722063616E2063616C6C20746869730000000000000000 PUSH0 DUP3 ADD MSTORE POP JUMP JUMPDEST PUSH0 PUSH2 0x1052 PUSH1 0x18 DUP4 PUSH2 0xAEB JUMP JUMPDEST SWAP2 POP PUSH2 0x105D DUP3 PUSH2 0x101E JUMP JUMPDEST PUSH1 0x20 DUP3 ADD SWAP1 POP SWAP2 SWAP1 POP JUMP JUMPDEST PUSH0 PUSH1 0x20 DUP3 ADD SWAP1 POP DUP2 DUP2 SUB PUSH0 DUP4 ADD MSTORE PUSH2 0x107F DUP2 PUSH2 0x1046 JUMP JUMPDEST SWAP1 POP SWAP2 SWAP1 POP JUMP JUMPDEST PUSH32 0x4D617820737570706C7920657863656564656400000000000000000000000000 PUSH0 DUP3 ADD MSTORE POP JUMP JUMPDEST PUSH0 PUSH2 0x10BA PUSH1 0x13 DUP4 PUSH2 0xAEB JUMP JUMPDEST SWAP2 POP PUSH2 0x10C5 DUP3 PUSH2 0x1086 JUMP JUMPDEST PUSH1 0x20 DUP3 ADD SWAP1 POP SWAP2 SWAP1 POP JUMP JUMPDEST PUSH0 PUSH1 0x20 DUP3 ADD SWAP1 POP DUP2 DUP2 SUB PUSH0 DUP4 ADD MSTORE PUSH2 0x10E7 DUP2 PUSH2 0x10AE JUMP JUMPDEST SWAP1 POP SWAP2 SWAP1 POP JUMP INVALID LOG2 PUSH5 0x6970667358 0x22 SLT KECCAK256 DIV EXTCALL 0x25 SWAP11 EXP 0xDE MCOPY 0xAD PUSH15 0xE113C649E1BBB6FE408301CBC61F05 0xD7 RETURNDATASIZE 0xE8 0xDF 0xB0 0x26 EOFCREATE 0x3 PUSH5 0x736F6C6343 STOP ADDMOD 0x1E STOP CALLER "
				},
				"gasEstimates": {
					"creation": {
						"codeDepositCost": "877600",
						"executionCost": "infinite",
						"totalCost": "infinite"
					},
					"external": {
						"balances(address)": "2847",
						"burn(uint256)": "infinite",
						"getMaxSupply()": "2521",
						"getPaymentHistory(address)": "infinite",
						"getTotalSupply()": "2454",
						"increaseSupply()": "infinite",
						"maxSupply()": "2513",
						"name()": "infinite",
						"owner()": "2531",
						"paymentHistory(address,uint256)": "infinite",
						"symbol()": "infinite",
						"totalSupply()": "2448",
						"transfer(uint256,address)": "infinite"
					}
				},
				"methodIdentifiers": {
					"balances(address)": "27e235e3",
					"burn(uint256)": "42966c68",
					"getMaxSupply()": "4c0f38c2",
					"getPaymentHistory(address)": "7da2ba7c",
					"getTotalSupply()": "c4e41b22",
					"increaseSupply()": "d1965080",
					"maxSupply()": "d5abeb01",
					"name()": "06fdde03",
					"owner()": "8da5cb5b",
					"paymentHistory(address,uint256)": "cc38b477",
					"symbol()": "95d89b41",
					"totalSupply()": "18160ddd",
					"transfer(uint256,address)": "b7760c8f"
				}
			},
			"storageLayout": {
				"storage": [
					{
						"astId": 4,
						"contract": "contracts/EnsToken.sol:ENSToken",
						"label": "name",
						"offset": 0,
						"slot": "0",
						"type": "t_string_storage"
					},
					{
						"astId": 7,
						"contract": "contracts/EnsToken.sol:ENSToken",
						"label": "symbol",
						"offset": 0,
						"slot": "1",
						"type": "t_string_storage"
					},
					{
						"astId": 10,
						"contract": "contracts/EnsToken.sol:ENSToken",
						"label": "totalSupply",
						"offset": 0,
						"slot": "2",
						"type": "t_uint256"
					},
					{
						"astId": 13,
						"contract": "contracts/EnsToken.sol:ENSToken",
						"label": "maxSupply",
						"offset": 0,
						"slot": "3",
						"type": "t_uint256"
					},
					{
						"astId": 15,
						"contract": "contracts/EnsToken.sol:ENSToken",
						"label": "owner",
						"offset": 0,
						"slot": "4",
						"type": "t_address"
					},
					{
						"astId": 19,
						"contract": "contracts/EnsToken.sol:ENSToken",
						"label": "balances",
						"offset": 0,
						"slot": "5",
						"type": "t_mapping(t_address,t_uint256)"
					},
					{
						"astId": 30,
						"contract": "contracts/EnsToken.sol:ENSToken",
						"label": "paymentHistory",
						"offset": 0,
						"slot": "6",
						"type": "t_mapping(t_address,t_array(t_struct(Payment)24_storage)dyn_storage)"
					}
				],
				"types": {
					"t_address": {
						"encoding": "inplace",
						"label": "address",
						"numberOfBytes": "20"
					},
					"t_array(t_struct(Payment)24_storage)dyn_storage": {
						"base": "t_struct(Payment)24_storage",
						"encoding": "dynamic_array",
						"label": "struct ENSToken.Payment[]",
						"numberOfBytes": "32"
					},
					"t_mapping(t_address,t_array(t_struct(Payment)24_storage)dyn_storage)": {
						"encoding": "mapping",
						"key": "t_address",
						"label": "mapping(address => struct ENSToken.Payment[])",
						"numberOfBytes": "32",
						"value": "t_array(t_struct(Payment)24_storage)dyn_storage"
					},
					"t_mapping(t_address,t_uint256)": {
						"encoding": "mapping",
						"key": "t_address",
						"label": "mapping(address => uint256)",
						"numberOfBytes": "32",
						"value": "t_uint256"
					},
					"t_string_storage": {
						"encoding": "bytes",
						"label": "string",
						"numberOfBytes": "32"
					},
					"t_struct(Payment)24_storage": {
						"encoding": "inplace",
						"label": "struct ENSToken.Payment",
						"members": [
							{
								"astId": 21,
								"contract": "contracts/EnsToken.sol:ENSToken",
								"label": "amount",
								"offset": 0,
								"slot": "0",
								"type": "t_uint256"
							},
							{
								"astId": 23,
								"contract": "contracts/EnsToken.sol:ENSToken",
								"label": "recipient",
								"offset": 0,
								"slot": "1",
								"type": "t_address"
							}
						],
						"numberOfBytes": "64"
					},
					"t_uint256": {
						"encoding": "inplace",
						"label": "uint256",
						"numberOfBytes": "32"
					}
				}
			},
			"userdoc": {
				"kind": "user",
				"methods": {
					"burn(uint256)": {
						"notice": "optional that burn function to decrease token from the owen after a transaction"
					}
				},
				"version": 1
			}
		}
	}
}